S01E00005377697463685F6F6E5F686F6C645F64656373696F6E2E737265630E
S11300000C942A000C9447000C9447000C9447006D
S11300100C9447000C9447000C9447000C94D004B3
S11300200C9447000C9447000C9447000C94470030
S11300300C9447000C9447000C9447000C94470020
S11300400C9447000C9447000C9447000C94470010
S11300500C94470011241FBECFE5D8E0DEBFCDBF0E
S113006010E0A0E6B0E0ECEEF1E102C005900D92E4
S1130070A636B107D9F726E0A6E6B0E001C01D9286
S1130080A73BB207E1F70E94C8000C94F4080C9453
S1130090000086E190E00E94D60261E081E00E94C7
S11300A0060161E080E00E94060180916D0090915C
S11300B06E000E94A208EDCFCF93DF931F92CDB7BD
S11300C0DEB787E190E00E94D602BE016F5F7F4FEA
S11300D080E00E949C018981813029F480916F0025
S11300E08F5F80936F0082E390E00E942808E9CF3D
S11300F011E0D0E080916F00C12F823009F0CD2F44
S113010090916800911105C0823079F410936700D2
S113011036C0913041F4823041F4809167008F5FA2
S1130120809367002CC0923050F5823041F1809169
S11301306700843128F46D2F812F0E94F0011FC0C5
S11301409CEE980F953168F4809166008F5F8093E0
S113015066008430A1F4812F0E948602D093660049
S11301600EC0893260F0809166008F5F80936600D4
S1130170813029F4812F0E948602D0936600C093B7
S11301806800D0936F0084E690E00E942808B2CF04
S1130190EF92FF920F930F2EFDE6EF2EF0E0FF2E6D
S11301A0F02D02E020E030E048E552E060E070E04D
S11301B089E490E00E94AC050F2EFBE6EF2EF0E000
S11301C0FF2EF02D01E020E030E044E650E060E056
S11301D070E08CE590E00E94AC050F2EF9E6EF2E5E
S11301E0F0E0FF2EF02D00E020E030E044E650E0A7
S11301F060E070E088E790E00E94AC050E94BE06D3
S113020080E090E00F91FF90EF900895803208F025
S11302108FC0982F97708695869586958F5B8234CC
S113022051F118F4813441F085C0833409F442C09B
S1130230843409F45EC07EC061110FC04AB321E06A
S113024030E0B90102C0660F771F9A95E2F7CB013F
S1130250809584238ABB80E008954AB321E030E08E
S1130260B90102C0660F771F9A95E2F7CB01842B80
S11302708ABB80E0089561110FC047B321E030E0EC
S1130280B90102C0660F771F9A95E2F7CB018095FA
S1130290842387BB80E0089547B321E030E0B901AF
S11302A002C0660F771F9A95E2F7CB01842B87BBB8
S11302B080E0089561110FC044B321E030E0B9013A
S11302C002C0660F771F9A95E2F7CB0180958423CD
S11302D084BB80E0089544B321E030E0B90102C05A
S11302E0660F771F9A95E2F7CB01842B84BB80E0DD
S11302F0089561110FC041B321E030E0B90102C09B
S1130300660F771F9A95E2F7CB018095842381BB12
S113031080E0089541B321E030E0B90102C0660FE6
S1130320771F9A95E2F7CB01842B81BB80E0089577
S113033081E0089581E00895803208F04DC0982F3F
S113034097708695869586958F5B8234C1F018F4F4
S1130350813431F043C0833409F1843471F13EC0F7
S113036089B3282F30E0A90102C0559547959A9585
S1130370E2F7CA018170FB01808380E0089586B3AF
S1130380282F30E0A90102C0559547959A95E2F7C8
S1130390CA018170FB01808380E0089583B3282F14
S11303A030E0A90102C0559547959A95E2F7CA0134
S11303B08170FB01808380E0089580B3282F30E0B2
S11303C0A90102C0559547959A95E2F7CA01817033
S11303D0FB01808380E0089581E0089581E0089521
S11303E0803208F08FC0982F9770869586958695F1
S11303F08F5B823451F118F4813441F085C0833429
S113040009F442C0843409F45EC07EC061110FC097
S11304104BB321E030E0B90102C0660F771F9A9513
S1130420E2F7CB01809584238BBB80E008954BB326
S113043021E030E0B90102C0660F771F9A95E2F718
S1130440CB01842B8BBB80E0089561110FC048B3AE
S113045021E030E0B90102C0660F771F9A95E2F7F8
S1130460CB018095842388BB80E0089548B321E0C4
S113047030E0B90102C0660F771F9A95E2F7CB010D
S1130480842B88BB80E0089561110FC045B321E03F
S113049030E0B90102C0660F771F9A95E2F7CB01ED
S11304A08095842385BB80E0089545B321E030E046
S11304B0B90102C0660F771F9A95E2F7CB01842B2E
S11304C085BB80E0089561110FC042B321E030E0A4
S11304D0B90102C0660F771F9A95E2F7CB018095A8
S11304E0842382BB80E0089542B321E030E0B90167
S11304F002C0660F771F9A95E2F7CB01842B82BB6B
S113050080E0089581E0089581E00895803208F044
S113051049C0982F97708695869586958F5B82340F
S1130520B9F018F4813431F03FC08334F9F08434E5
S113053059F13AC04BB321E030E0B90102C0660F73
S1130540771F9A95E2F7CB0184278BBB80E008954F
S113055048B321E030E0B90102C0660F771F9A95D5
S1130560E2F7CB01842788BB80E0089545B321E0FE
S113057030E0B90102C0660F771F9A95E2F7CB010C
S1130580842785BB80E0089542B321E030E0B901BF
S113059002C0660F771F9A95E2F7CB01842782BBCE
S11305A080E0089581E0089581E00895CF93C82FF5
S11305B080917000882319F0813061F00EC061E0F1
S11305C08C2F0E9406018C2F0E94860281E080936A
S11305D0700003C08C2F0E948602CF910895FC0105
S11305E00396928381832FEF3FEF34832383968393
S11305F085839087878310820895FC011186108675
S11306000895CF93DF939C01FB01DC011196CD91FA
S1130610DC911297D383C2838C819D8195838483DB
S11306208C819D81DC0113967C936E9312977D835C
S11306306C8331872087F90180818F5F8083DF910C
S1130640CF910895CF93DF93EB01488159814F3FB8
S11306502FEF520721F4FC01A781B0850DC0DC0106
S1130660139601C0DF011296ED91FC91139720813E
S1130670318142175307B0F71296ED91FC9113970D
S1130680FB83EA83D583C483BD83AC831396DC9355
S1130690CE93129799878887FC0120812F5F20834E
S11306A0DF91CF910895CF93DF93FC01A085B185AD
S11306B0C281D381848195819D838C83C481D581BA
S11306C0828193819B838A8311968D919C91129749
S11306D0E817F90731F48481958112969C938E93DF
S11306E01197118610868C9181508C938C91DF9197
S11306F0CF91089531E1FC013083319722E22083C8
S11307003197A3E3A0833197608331977083319746
S11307101082319760E8608331971082319762E0EC
S11307206083319763E06083319764E0608331973D
S113073065E06083319766E06083319767E06083AA
S1130740319768E06083319769E06083319760E1B5
S1130750608331973083319732E13083319733E1CD
S11307603083319734E13083319735E130833197E9
S113077036E13083319737E13083319738E1308384
S1130780319739E13083319730E23083319731E268
S1130790308331972083319723E22083319740833C
S11307A031975083319726E22083319727E22083C3
S11307B0319728E22083319729E22083319720E37F
S11307C02083319721E32083869708951BBC8CE70F
S11307D08ABD8BE08EBD89B7806189BFA091B506C3
S11307E0B091B606CD91CDBFDD91DEBFFF91EF9103
S11307F0DF91CF91BF91AF919F918F917F916F9135
S11308005F914F913F912F911F910F91FF90EF9026
S1130810DF90CF90BF90AF909F908F907F906F901C
S11308205F904F903F902F901F900F900FBE0F90AE
S1130830089581E008950F920FB6F8940F921F92D5
S113084011242F923F924F925F926F927F928F92D8
S11308509F92AF92BF92CF92DF92EF92FF920F934B
S11308601F932F933F934F935F936F937F938F9334
S11308709F93AF93BF93CF93DF93EF93FF93A09195
S1130880B506B091B6060DB60D920EB60D920E9445
S11308903C08A091B506B091B606CD91CDBFDD91CF
S11308A0DEBFFF91EF91DF91CF91BF91AF919F9107
S11308B08F917F916F915F914F913F912F911F91F4
S11308C00F91FF90EF90DF90CF90BF90AF909F90EB
S11308D08F907F906F905F904F903F902F901F90DC
S11308E00F900FBE0F9008950F920FB6F8940F92C9
S11308F01F9211242F923F924F925F926F927F9298
S11309008F929F92AF92BF92CF92DF92EF92FF921B
S11309100F931F932F933F934F935F936F937F9303
S11309208F939F93AF93BF93CF93DF93EF93FF93F3
S1130930A091B506B091B6060DB60D920EB60D9205
S11309400E94EE0681110E943C08A091B506B09168
S1130950B606CD91CDBFDD91DEBFFF91EF91DF9162
S1130960CF91BF91AF919F918F917F916F915F9143
S11309704F913F912F911F910F91FF90EF90DF9036
S1130980CF90BF90AF909F908F907F906F905F902B
S11309904F903F902F901F900F900FBE0F9008958F
S11309A00E9474041895CF93DF93EC010E94E8062B
S11309B08091710090917200892B31F486E790E068
S11309C090937200809371002091730030917400B1
S11309D0C9018C0F9D1F8B3D45E0940770F42817C7
S11309E0390770F4C0917100D0917200C20FD31F07
S11309F0909374008093730005C0C0E0D0E002C0FF
S1130A00C0E0D0E00E94A907CE01DF91CF91089504
S1130A100895E0917D06F0917E068081811107C0E2
S1130A208FEF9FEF90935506809354060895E091BD
S1130A307D06F0917E060580F681E02D0680F78123
S1130A40E02D8281938190935506809354060895F6
S1130A5009E616E0809168068823E1F30FB6F8945E
S1130A600F92D8011596ED91FC911697C681D78106
S1130A70CE0102960E94530380915E0681508093BA
S1130A805E06809168068150809368060F900FBEC1
S1130A908F89988D0E940805CE010E9408058091D7
S1130AA068068111DBCFD6CFFF920F931F93CF93AC
S1130AB0DF93EC01F62E00915C0610915D068091A7
S1130AC0B5069091B60602960E945303CF3F8FEF6E
S1130AD0D80769F4FF2059F06091B5067091B60605
S1130AE06E5F7F4F8FE596E00E9401032FC0C00F19
S1130AF0D11FE091B506F091B606D383C283C01727
S1130B00D10768F46091B5067091B60680917B06B2
S1130B1090917C066E5F7F4F0E94220317C0609104
S1130B20B5067091B60680917D0690917E066E5F43
S1130B307F4F0E9422038091540690915506C81756
S1130B40D90720F4D0935506C0935406DF91CF9172
S1130B501F910F91FF9008954F925F926F927F9231
S1130B608F929F92AF92BF92CF92DF92EF92FF92B9
S1130B700F93CF93DF934C016B015A012901CA01F2
S1130B800E94D3043C01892B09F4E7C086E290E07B
S1130B900E94D304EC01892B59F0788E6F8A81E08E
S1130BA0A81AB108A60CB71CC114D10429F420C09A
S1130BB0C3010E940805D1C0D6018C91898F8C9104
S1130BC08823A1F0AE01465E5F4FF6013196B8E08E
S1130BD0CB0ED11CCF012191DA012D93AD01DC01A3
S1130BE08C91882319F0EC15FD05A1F718A201C01A
S1130BF0198E043008F003E00E8B6E01B2E0CB0EC8
S1130C00D11CC6010E94FD02CE010C960E94FD0279
S1130C10D987C88784E090E0801B91099D878C87E1
S1130C20DB8BCA8B19A21AA21BA21CA21DA2A201B1
S1130C30B401C5010E947A0399838883E114F10405
S1130C4019F0F701D183C0830FB6F8940F92809105
S1130C505E068F5F80935E068091B5069091B6061E
S1130C60892BD1F5D093B606C093B50680915E0664
S1130C70813009F041C081E996E00E94EF028AE9DF
S1130C8096E00E94EF0283EA96E00E94EF028CEA6B
S1130C9096E00E94EF0288E896E00E94EF028FE758
S1130CA096E00E94EF0282E796E00E94EF0289E656
S1130CB096E00E94EF028FE596E00E94EF0288E83A
S1130CC096E090937E0680937D068FE796E090935E
S1130CD07C0680937B0610C080915A0681110CC05B
S1130CE0E091B506F091B60696898E89891720F0B1
S1130CF0D093B606C093B506809156068F5F809355
S1130D0056068E8990915B06981710F480935B06C3
S1130D1090E09C01220F331F220F331F220F331F39
S1130D20820F931FB6018F56994F0E9401030F90B3
S1130D300FBE80915A06882361F0E091B506F091C8
S1130D40B60696898E89981730F40E941B0481E0B8
S1130D5005C081E003C081E001C08FEFDF91CF9136
S1130D600F91FF90EF90DF90CF90BF90AF909F9046
S1130D708F907F906F905F904F900895EF92FF92C5
S1130D800F930F2EF2E5EF2EF6E0FF2EF02D00E08C
S1130D9020E030E045E550E060E670E088E295E070
S1130DA00E94AC05813081F4F8948FEF9FEF90930B
S1130DB055068093540681E080935A0610925D068E
S1130DC010925C060E94E6030F91FF90EF90089545
S1130DD0809151068F5F809351060895CF92DF92E0
S1130DE0EF92FF920F931F93CF93DF93809151065D
S1130DF0811199C0E0905C06F0905D068FEFE81ACF
S1130E00F80AF0925D06E0925C06E114F104B9F48C
S1130E1080917D0690917E0620917B0630917C0620
S1130E2030937E0620937D0690937C0680937B0608
S1130E30809157068F5F809357060E940905809121
S1130E40540690915506E816F90610F4D12C53C0B7
S1130E50D12CCC24C394E0917D06F0917E06808150
S1130E60811107C08FEF9FEF90935506809354062E
S1130E7042C0E0917D06F0917E060580F681E02D6A
S1130E80C681D7818A819B81E816F90628F490935C
S1130E905506809354062FC08E010E5F1F4FC80164
S1130EA00E9453038C899D89892B21F0CE010C96D5
S1130EB00E9453038E8990915B06981710F48093D7
S1130EC05B0690E09C01220F331F220F331F220F79
S1130ED0331F820F931FB8018F56994F0E9401034D
S1130EE0E091B506F091B6069E898689981708F4B4
S1130EF0B2CFDC2CB0CFE091B506F091B60686896E
S1130F0090E0FC01EE0FFF1FEE0FFF1FEE0FFF1F1F
S1130F108E0F9F1FFC01EF56F94F8081823048F0FD
S1130F20DD24D39406C0809159068F5F80935906BF
S1130F30D12C80915806882311F0DD24D3948D2D73
S1130F40DF91CF911F910F91FF90EF90DF90CF90A1
S1130F500895DF92EF92FF920F931F93CF93DF9345
S1130F600FB6F8940F9280915106815080935106E8
S1130F708091510681115FC080915E06811133C05A
S1130F805DC0D7011596ED91FC911697C681D78166
S1130F90CE010C960E9453038E010E5F1F4FC801B1
S1130FA00E9453038E8990915B06981710F48093E6
S1130FB05B0690E09C01220F331F220F331F220F88
S1130FC0331F820F931FB8018F56994F0E9401035C
S1130FD0E091B506F091B6069E898689981768F067
S1130FE0D09258060AC0C0E0D0E00F2EF2E7EF2EF0
S1130FF0F6E0FF2EF02DDD24D394F70180818111DA
S1131000C0CFCD2B11F00E940905C0915906CC2305
S113101051F0D1E00E94EE068111D0935806C150E0
S1131020C9F71092590680915806882331F00E941E
S11310301B0481E003C080E001C080E00F900FBE7C
S1131040DF91CF911F910F91FF90EF90DF90089562
S1131050CF93DF93EC01892B51F00E94E80660E006
S1131060CE010E9454050E94A907811102C00E946A
S11310701B04DF91CF91089580915106882321F0BC
S113108081E08093580608951092580620915B06DB
S1131090822F90E0FC01EE0FFF1FEE0FFF1FEE0FFB
S11310A0FF1FE80FF91FEF56F94F3081311111C0BE
S11310B02150822F90E0FC01EE0FFF1FEE0FFF1F67
S11310C0EE0FFF1FE80FF91FEF56F94F308133235E
S11310D079F3AC01440F551F440F551F440F551F9E
S11310E0480F591FDA01AF56B94F1196ED91FC9193
S11310F012970280F381E02D1296FC93EE931197E0
S11311004C56594FE417F50729F442815381FD01E8
S113111052834183FC01EE0FFF1FEE0FFF1FEE0F02
S1131120FF1F8E0F9F1FFC01EF56F94F0180F281C4
S1131130E02D868197819093B6068093B50620931F
S11311405B0608950F931F93CF93DF93EC010FB6C3
S1131150F8940F92892B21F4C091B506D091B6066C
S11311608E010E5F1F4FC8010E9453038C899D8915
S1131170892B21F0CE010C960E945303B8018FE510
S113118096E00E9401038DA1813009F41DA20F9005
S11311900FBE80915A06882339F00FB6F8940F9247
S11311A00E9409050F900FBE8091B5069091B60676
S11311B0C817D907A1F480915A06882319F00E9410
S11311C01B040DC090915F0680915E06981305C0C4
S11311D01092B6061092B50602C00E943C08DF9138
S10F11E0CF911F910F910895F894FFCF58
S10911EC49444C450000DB
S9030000FC
