:100000000C942A000C9447000C9447000C94470071
:100010000C9447000C9447000C9447000C9459062C
:100020000C9447000C9447000C9447000C94470034
:100030000C9447000C9447000C9447000C94470024
:100040000C9447000C9447000C9447000C94470014
:100050000C94470011241FBECFE5D8E0DEBFCDBF12
:1000600010E0A0E6B0E0EEEEFBE102C005900D92DC
:10007000A639B107D9F726E0A6E9B0E001C01D9284
:10008000AB3FB207E1F70E9406020C94F50D0C9409
:10009000000080919600909197000E94FB0C809147
:1000A0009E0090919F000E94FB0C80919A0090917D
:1000B0009B000E94FB0C80919800909199000E94F7
:1000C000FB0C0E948E0260E088E00E94FA0260E071
:1000D00089E00E94FA0261E08AE00E94FA0261E08F
:1000E0008BE00E94FA0280919600909197000E9406
:1000F000AB0A80919E0090919F000E94AB0A809174
:100100009A0090919B000E94AB0A80919800909178
:1001100099000E94AB0A80919C0090919D000E94E2
:10012000FB0CCFCFCF93DF9300D01F92CDB7DEB7BC
:1001300060E082E00E94C3079093FA068093F9067C
:100140000E94220B9A83898386E190E00E94CA0470
:10015000BE016D5F7F4F88E00E9490038B818130EC
:1001600099F48091F9069091FA060E94F208823083
:1001700058F420E040E050E060E070E08091F90643
:100180009091FA060E94CF0786E190E00E94CA048F
:1001900062E370E0CE0101960E94430CD1CFCF9371
:1001A000DF9300D01F92CDB7DEB760E082E00E94FF
:1001B000C3079093F6068093F5060E94220B9A835C
:1001C000898387E190E00E94CA04BE016D5F7F4F82
:1001D00089E00E9490038B81813099F48091F5062B
:1001E0009091F6060E94F208823058F420E040E038
:1001F00050E060E070E08091F5069091F6060E9474
:10020000CF0787E190E00E94CA0462E370E0CE016C
:1002100001960E94430CD1CFCF93DF9300D0CDB78E
:10022000DEB743E060E081E00E9496079093F0061D
:100230008093EF06009739F020E040E050E060E066
:1002400070E00E94CF0743E060E081E00E949607E3
:100250009093F8068093F706009739F020E040E08D
:1002600050E060E070E00E94CF070E94220B9A836A
:1002700089838EE190E00E94CA048091F9069091F2
:10028000FA060E94F208082F8091F5069091F60672
:100290000E94F208182F08C060E070E08091F90613
:1002A0009091FA060E9468088091F9069091FA06EA
:1002B0000E94F2088111F0CF08C060E070E08091E8
:1002C000F5069091F6060E9468088091F5069091D7
:1002D000F6060E94F2088111F0CF023098F0123039
:1002E00020F560E070E08091EF069091F0060E94AA
:1002F000680840E750E061E070E081E090E00E9433
:10030000EF021BC0123088F060E070E08091F706C9
:100310009091F8060E94680840E850E061E070E0C3
:1003200081E090E00E94EF0208C040E650E061E00A
:1003300070E081E090E00E94EF028EE190E00E9488
:10034000CA0468EC70E0CE0101960E94430C8DCF88
:10035000CF93DF9300D0CDB7DEB743E060E081E01C
:100360000E9496079093F4068093F306009739F065
:1003700020E040E050E060E070E00E94CF070E9483
:10038000220B9A83898388E190E00E94CA048091BD
:10039000EF069091F0060E94F208811110C061E012
:1003A0008AE00E94E40320E040E050E060E070E07A
:1003B0008091EF069091F0060E94CF071CC08091BB
:1003C000F7069091F8060E94F208811110C061E0D2
:1003D0008AE00E94E40320E040E050E060E070E04A
:1003E0008091F7069091F8060E94CF0704C060E064
:1003F0008AE00E94E40388E190E00E94CA0468EC6D
:1004000070E0CE0101960E94430CB9CFEF92FF92AB
:100410000F930F2EFCE9EF2EF0E0FF2EF02D04E0FD
:1004200020E030E044E650E060E070E089E490E0F5
:100430000E949F090F2EFAE9EF2EF0E0FF2EF02D1B
:1004400003E020E030E044E650E060E070E082E964
:1004500090E00E949F090F2EF8E9EF2EF0E0FF2EAA
:10046000F02D20E030E044E650E060E070E08FECFA
:1004700090E00E949F090F2EF6E9EF2EF0E0FF2E8C
:10048000F02D02E020E030E044E650E060E070E073
:100490008CE091E00E949F090F2EFEE9EF2EF0E024
:1004A000FF2EF02D01E020E030E044E650E060E077
:1004B00070E088EA91E00E949F090E94F20A80E0C1
:1004C00090E00F91FF90EF900895CF93C82FD998A7
:1004D000DA98DB9A82E090E00E94810C8BB38F70F7
:1004E0009C2F907F892B8BBBDB9882E090E00E9451
:1004F000810CDB9A82E090E00E94810C8BB3282F64
:100500002F7030E1C39FC0011124822B8BBBDB987D
:1005100082E090E00E94810CCF9108958AB38E60B2
:100520008ABB8AB3806F8ABB82E00E94650288E240
:100530000E9465028CE00E94650281E00E946502D3
:100540000895CF93C82FD99ADA98DB9A81E090E08A
:100550000E94810C8BB38F709C2F907F892B8BBB5B
:10056000DB9881E090E00E94810CDB9A81E090E0D2
:100570000E94810C8BB3282F2F7030E1C39FC001E4
:100580001124822B8BBBDB9881E090E00E94810CD0
:1005900080E0CF9108950F931F93CF93FC0180814A
:1005A000882359F08F01C0E00E94A102CF5FF801BB
:1005B000EC0FF11D80818111F7CFCF911F910F9129
:1005C0000895813019F0823021F005C09FE7960F21
:1005D00002C09FEB960F892F0E9465020895CF936A
:1005E000DF93EA010E94E102CE010E94CB02DF917B
:1005F000CF910895803208F08FC0982F977086951C
:10060000869586958F5B823451F118F4813441F0E0
:1006100085C0833409F442C0843409F45EC07EC0CE
:1006200061110FC04AB321E030E0B90102C0660F8A
:10063000771F9A95E2F7CB01809584238ABB80E0EF
:1006400008954AB321E030E0B90102C0660F771F78
:100650009A95E2F7CB01842B8ABB80E00895611163
:100660000FC047B321E030E0B90102C0660F771F29
:100670009A95E2F7CB018095842387BB80E00895AB
:1006800047B321E030E0B90102C0660F771F9A95A9
:10069000E2F7CB01842B87BB80E0089561110FC086
:1006A00044B321E030E0B90102C0660F771F9A958C
:1006B000E2F7CB018095842384BB80E0089544B3A6
:1006C00021E030E0B90102C0660F771F9A95E2F78A
:1006D000CB01842B84BB80E0089561110FC041B32E
:1006E00021E030E0B90102C0660F771F9A95E2F76A
:1006F000CB018095842381BB80E0089541B321E044
:1007000030E0B90102C0660F771F9A95E2F7CB017E
:10071000842B81BB80E0089581E0089581E00895F5
:10072000803208F04DC0982F9770869586958695F3
:100730008F5B8234C1F018F4813431F043C08334CC
:1007400009F1843471F13EC089B3282F30E0A9014A
:1007500002C0559547959A95E2F7CA018170FB0151
:10076000808380E0089586B3282F30E0A90102C07D
:10077000559547959A95E2F7CA018170FB018083F0
:1007800080E0089583B3282F30E0A90102C0559579
:1007900047959A95E2F7CA018170FB01808380E05A
:1007A000089580B3282F30E0A90102C055954795E0
:1007B0009A95E2F7CA018170FB01808380E0089579
:1007C00081E0089581E00895803208F08FC0982F6D
:1007D00097708695869586958F5B823451F118F4D3
:1007E000813441F085C0833409F442C0843409F473
:1007F0005EC07EC061110FC04BB321E030E0B90193
:1008000002C0660F771F9A95E2F7CB01809584238B
:100810008BBB80E008954BB321E030E0B90102C00A
:10082000660F771F9A95E2F7CB01842B8BBB80E094
:10083000089561110FC048B321E030E0B90102C052
:10084000660F771F9A95E2F7CB018095842388BBCA
:1008500080E0089548B321E030E0B90102C0660F9E
:10086000771F9A95E2F7CB01842B88BB80E008952F
:1008700061110FC045B321E030E0B90102C0660F3D
:10088000771F9A95E2F7CB018095842385BB80E0A2
:10089000089545B321E030E0B90102C0660F771F2B
:1008A0009A95E2F7CB01842B85BB80E00895611116
:1008B0000FC042B321E030E0B90102C0660F771FDC
:1008C0009A95E2F7CB018095842382BB80E008955E
:1008D00042B321E030E0B90102C0660F771F9A955C
:1008E000E2F7CB01842B82BB80E0089581E008957C
:1008F00081E00895803208F049C0982F977086955E
:10090000869586958F5B8234B9F018F4813431F086
:100910003FC08334F9F0843459F13AC04BB321E03D
:1009200030E0B90102C0660F771F9A95E2F7CB015C
:1009300084278BBB80E0089548B321E030E0B90103
:1009400002C0660F771F9A95E2F7CB01842788BB18
:1009500080E0089545B321E030E0B90102C0660FA0
:10096000771F9A95E2F7CB01842785BB80E0089535
:1009700042B321E030E0B90102C0660F771F9A95BB
:10098000E2F7CB01842782BB80E0089581E00895DF
:1009900081E00895CF93C82F61E00E94FA028C2F66
:1009A0000E947A04CF910895FC010396928381837B
:1009B0002FEF3FEF3483238396838583908787834C
:1009C00010820895FC01118610860895CF93DF935D
:1009D0009C01FB01DC011196CD91DC911297D38330
:1009E000C2838C819D81958384838C819D81DC0170
:1009F00013967C936E9312977D836C833187208747
:100A0000F90180818F5F8083DF91CF910895CF932B
:100A1000DF93EB01488159814F3F2FEF520721F4BB
:100A2000FC01A781B0850DC0DC01139601C0DF0178
:100A30001296ED91FC911397208131814217530753
:100A4000B0F71296ED91FC911397FB83EA83D5835F
:100A5000C483BD83AC831396DC93CE93129799879E
:100A60008887FC0120812F5F2083DF91CF9108953B
:100A7000CF93DF93FC01A085B185C281D3818481AE
:100A800095819D838C83C481D581828193819B8351
:100A90008A8311968D919C911297E817F90731F48A
:100AA0008481958112969C938E931197118610865E
:100AB0008C9181508C938C91DF91CF91089531E18D
:100AC000FC013083319722E220833197A3E3A08396
:100AD000319760833197708331971082319760E846
:100AE000608331971082319762E06083319763E0D1
:100AF0006083319764E06083319765E0608331976C
:100B000066E06083319767E06083319768E06083D7
:100B1000319769E06083319760E16083319730837A
:100B2000319732E13083319733E13083319734E1CB
:100B30003083319735E13083319736E13083319717
:100B400037E13083319738E13083319739E13083B1
:100B5000319730E23083319731E23083319720830F
:100B6000319723E220833197408331975083319727
:100B700026E22083319727E22083319728E22083E1
:100B8000319729E22083319720E32083319721E3B5
:100B90002083869708951BBC8CE78ABD8BE08EBDB1
:100BA00089B7806189BFA091ED06B091EE06CD9125
:100BB000CDBFDD91DEBFFF91EF91DF91CF91BF916E
:100BC000AF919F918F917F916F915F914F913F91E5
:100BD0002F911F910F91FF90EF90DF90CF90BF90DA
:100BE000AF909F908F907F906F905F904F903F90CD
:100BF0002F901F900F900FBE0F90089581E00895E1
:100C00000F920FB6F8940F921F9211242F923F92D9
:100C10004F925F926F927F928F929F92AF92BF920C
:100C2000CF92DF92EF92FF920F931F932F933F93F8
:100C30004F935F936F937F938F939F93AF93BF93E4
:100C4000CF93DF93EF93FF93A091ED06B091EE0663
:100C50000DB60D920EB60D920E94950CA091ED0668
:100C6000B091EE06CD91CDBFDD91DEBFFF91EF914A
:100C7000DF91CF91BF91AF919F918F917F916F91B4
:100C80005F914F913F912F911F910F91FF90EF90A6
:100C9000DF90CF90BF90AF909F908F907F906F909C
:100CA0005F904F903F902F901F900F900FBE0F902E
:100CB00008951F920F920FB60F9211242F933F9316
:100CC0004F935F936F937F938F939F93AF93BF9354
:100CD000EF93FF930E942C0BFF91EF91BF91AF9187
:100CE0009F918F917F916F915F914F913F912F9144
:100CF0000F900FBE0F901F901895CF93DF93EC01CC
:100D00000E941C0B8091A0009091A100892B31F4CE
:100D100085EA90E09093A1008093A0002091A2002A
:100D20003091A300C9018C0F9D1F8B3D45E09407B6
:100D300070F42817390770F4C091A000D091A10079
:100D4000C20FD31F9093A3008093A20005C0C0E000
:100D5000D0E002C0C0E0D0E00E94CC0BCE01DF9119
:100D6000CF91089508950FB6F8940F92FC01928DDB
:100D70000F900FBE81E0911180E008950F931F93B3
:100D8000CF93DF93EC01042F1A8D4C8D4423B9F1DE
:100D9000011116C050E08A819B810E94EC0D2C8DC0
:100DA0008A819B81820F911D9B838A832C813D8147
:100DB0008217930720F1888199819B838A831FC0C2
:100DC00050E08E819F810E94EC0D8C8D90E091957A
:100DD000819591092E813F81280F391F3F832E83F2
:100DE000488159812417350730F42C813D81820FC9
:100DF000931F9F838E83023011F4111111501F5FD6
:100E00001A8F80E0DF91CF911F910F910895EF929B
:100E1000FF920F931F93CF938C010FB6F8940F920C
:100E2000FC01C68D1C16ACF48189811106C011C06D
:100E3000F8018189811105C00CC07801F1E1EF0E44
:100E4000F11CC7010E945F0D81110E94E80DC15085
:100E500079F78FEFF801868F0F900FBE0FB6F894D9
:100E60000F92C58D1C16ACF48085811106C011C08F
:100E7000F8018085811105C00CC07801F8E0EF0E03
:100E8000F11CC7010E945F0D81110E94E80DC15045
:100E900079F78FEFF801858F0F900FBECF911F91DB
:100EA0000F91FF90EF900895CF93DF93EC010FB671
:100EB000F8940F92E881F9818B8D2C8D90E030E0D1
:100EC000829FA001839F500D929F500D11244E0FC1
:100ED0005F1F5D834C831A8EFB83EA830197829F99
:100EE000A001839F500D929F500D1124CF01840FBC
:100EF000951F9F838E838FEF8D8F8E8F611108C01A
:100F00008885882369F0CE0108960E945F0D08C08D
:100F1000CE0108960E94D404CE0141960E94D404CA
:100F20000F900FBE81E0DF91CF9108950F931F9333
:100F3000CF93DF93082F162F6623C1F0869FC00141
:100F400011244F960E947D06EC01009741F415C0D4
:100F50000B8F1C8F61E0CE010E9454070EC04F968C
:100F600099838883F5CFD983C883F2CF8FE190E04E
:100F70000E947D06EC01892BB1F7CE01DF91CF9164
:100F80001F910F910895CF93C62F42E060E00E9419
:100F90009607009711F0FC01C28FCF9108959F92A0
:100FA000AF92BF92CF92DF92EF92FF920F931F9377
:100FB000CF93DF9300D000D01F92CDB7DEB78C0166
:100FC0006B015D834C83A22EB12C992493947C01F8
:100FD00088E0E80EF11C0FB6F8940F92F801928D9C
:100FE000838D981718F0F2E0AF1211C04A2DB601A8
:100FF000C8010E94BE06F8018189882321F0C8013A
:1010000041960E945F0D0F900FBE81E050C08C8111
:101010009D81892B21F40F900FBE80E048C0B11054
:1010200005C0CE0101960E94A70DB92C0F900FBEEE
:101030000E941C0B0FB6F8940F92F801858D8F3F1C
:1010400009F4158EF801868D8F3F09F4168E0F90E6
:101050000FBEBE016C5F7F4FCE0101960E94B20DA4
:1010600081111FC00FB6F8940F92F801928D0F9066
:101070000FBE838D98130FC06C817D81C7010E94C4
:101080004D0DC8010E9407070E94CC0B8111A3CF10
:101090000E940006A0CFC8010E9407070E94CC0B47
:1010A0009ACFC8010E9407070E94CC0B80E00F90E6
:1010B0000F900F900F900F90DF91CF911F910F9194
:1010C000FF90EF90DF90CF90BF90AF909F900895EA
:1010D000CF92DF92EF92FF920F931F93CF93DF9304
:1010E00000D000D01F92CDB7DEB78C017D836C831A
:1010F000D12CCC24C3947C0181E1E80EF11C0FB605
:10110000F8940F92F801828D882369F08150828FC4
:101110008085882321F0C80108960E945F0D0F90FA
:101120000FBE81E051C08C819D81892B21F40F90ED
:101130000FBE80E049C0D11005C0CE0101960E94CB
:10114000A70DDC2C0F900FBE0E941C0B0FB6F8945D
:101150000F92F801858D8F3F09F4158EF801868D69
:101160008F3F09F4168E0F900FBEBE016C5F7F4F4C
:10117000CE0101960E94B20D81111AC0C8010E94D1
:10118000B306882379F06C817D81C7010E944D0DE3
:10119000C8010E9407070E94CC0B8111B0CF0E94AA
:1011A0000006ADCFC8010E9407070E94CC0BA7CF55
:1011B000C8010E9407070E94CC0BC8010E94B30619
:1011C000882309F49CCF80E00F900F900F900F9030
:1011D0000F90DF91CF911F910F91FF90EF90DF90D3
:1011E000CF9008950FB6F8940F92FC01828D0F9066
:1011F0000FBE0895E091AC06F091AD06808181119B
:1012000007C08FEF9FEF9093840680938306089525
:10121000E091AC06F091AD060580F681E02D0680E8
:10122000F781E02D828193819093840680938306D9
:10123000089508E916E080919706882329F10FB6F2
:10124000F8940F92D8011596ED91FC911697C681EE
:10125000D781CE0102960E94380580918D0681507B
:1012600080938D06809197068150809397060F900A
:101270000FBE8F89988D0E94B206CE010E94B206E1
:10128000809197068111DBCF0E940006D4CFFF9298
:101290000F931F93CF93DF93EC01F62E00918B06F3
:1012A00010918C068091ED069091EE0602960E94B8
:1012B0003805CF3F8FEFD80769F4FF2059F06091D0
:1012C000ED067091EE066E5F7F4F8EE896E00E940D
:1012D000E6042FC0C00FD11FE091ED06F091EE069D
:1012E000D383C283C017D10768F46091ED06709173
:1012F000EE068091AA069091AB066E5F7F4F0E942A
:10130000070517C06091ED067091EE068091AC065E
:101310009091AD066E5F7F4F0E9407058091830616
:1013200090918406C817D90720F4D0938406C093FF
:101330008306DF91CF911F910F91FF9008954F92F7
:101340005F926F927F928F929F92AF92BF92CF9255
:10135000DF92EF92FF920F931F93CF93DF934C0195
:101360006B015A012901CA010E947D063C01892BAB
:1013700009F4DFC086E290E00E947D06EC01892B33
:1013800059F0788E6F8A81E0A81AB108A60CB71CB4
:10139000C114D10429F420C0C3010E94B206C9C0FF
:1013A000D6018C91898F8C918823A1F0AE01465E85
:1013B0005F4FF6013196B8E0CB0ED11CCF012191E1
:1013C000DA012D93AD01DC018C91882319F0CE1642
:1013D000DF06A1F718A201C0198E053008F004E05D
:1013E0000E8B6E01B2E0CB0ED11CC6010E94E2044E
:1013F000CE010C960E94E204D987C88785E090E070
:10140000801B91099D878C87DB8BCA8B19A21AA23E
:101410001BA21CA21DA2A201B401C5010E945F056E
:1014200099838883E114F10419F0F701D183C08313
:101430000FB6F8940F9280918D068F5F80938D0682
:101440008091ED069091EE06892BD1F5D093EE06B2
:10145000C093ED0680918D06813009F041C000EC0B
:1014600016E00F2EFDEEEF2EF6E0FF2EF02DC80158
:101470000E94D404075F1F4F0E151F05C1F787EBAD
:1014800096E00E94D4048EEA96E00E94D40481EA99
:1014900096E00E94D40488E996E00E94D4048EE885
:1014A00096E00E94D40487EB96E09093AD0680937B
:1014B000AC068EEA96E09093AB068093AA0610C025
:1014C0008091890681110CC0E091ED06F091EE0645
:1014D00096898E89891720F0D093EE06C093ED0689
:1014E000809185068F5F809385068E8990918A060C
:1014F000981710F480938A0690E09C01220F331F06
:10150000220F331F220F331F820F931FB601805407
:10151000994F0E94E6040F900FBE809189068823A0
:1015200031F08091ED069091EE0681E003C081E0FC
:1015300001C08FEFDF91CF911F910F91FF90EF903E
:10154000DF90CF90BF90AF909F908F907F906F90E3
:101550005F904F9008950F931F93CF93DF93209147
:10156000ED063091EE0682179307B9F10097A9F1C5
:101570000FB6F8940F92FC01228533852E58364021
:1015800051F5FC0124893589F6E0213A3F0719F12C
:10159000232B09F5EC018C010E5F1F4FC8010E943F
:1015A00038058E8990918A06981710F480938A06E0
:1015B00090E09C01220F331F220F331F220F331F95
:1015C000820F931FB8018054994F0E94E6048091C6
:1015D000ED069091EE060F900FBEDF91CF911F9117
:1015E0000F910895EF92FF920F930F2EF1E8EF2ED7
:1015F000F6E0FF2EF02D00E020E030E045E550E081
:1016000060E970E089E199E00E949F09813081F4EE
:10161000F8948FEF9FEF909384068093830681E088
:101620008093890610928C0610928B060E94CB053F
:101630000F91FF90EF900895809180068F5F8093C7
:10164000800608950FB6F8940F9280918B069091C2
:101650008C060F900FBE0895EF92FF920F931F9389
:10166000CF93DF9380918006811189C0E0908B0633
:10167000F0908C068FEFE81AF80AF0928C06E09250
:101680008B06E114F104B9F48091AC069091AD069B
:101690002091AA063091AB063093AD062093AC069C
:1016A0009093AB068093AA06809186068F5F809305
:1016B00086060E94FA088091830690918406E816B7
:1016C000F90608F461C0E091AC06F091AD068081A6
:1016D000882379F0E091AC06F091AD060580F681A3
:1016E000E02DC681D7818A819B81E816F906D8F45E
:1016F00015C08FEF9FEF909384068093830644C0BC
:10170000E091AC06F091AD060580F681E02DC68132
:10171000D7818A819B81E816F90628F49093840684
:101720008093830631C08E010E5F1F4FC8010E9457
:1017300038058C899D89892B21F0CE010C960E9459
:1017400038058E8990918A06981710F480938A063E
:1017500090E09C01220F331F220F331F220F331FF3
:10176000820F931FB8018054994F0E94E604E091C4
:10177000AC06F091AD0680818111C2CFBACF8091C5
:1017800088068F5F8093880680E0DF91CF911F915C
:101790000F91FF90EF900895DF92EF92FF920F93D9
:1017A0001F93CF93DF930FB6F8940F92809180062A
:1017B00081508093800680918006811159C080916C
:1017C0008D06811133C054C0D7011596ED91FC915F
:1017D0001697C681D781CE010C960E9438058E01DE
:1017E0000E5F1F4FC8010E9438058E8990918A06AE
:1017F000981710F480938A0690E09C01220F331F03
:10180000220F331F220F331F820F931FB801805402
:10181000994F0E94E604E091ED06F091EE069E8954
:101820008689981768F0D09287060AC0C0E0D0E099
:101830000F2EF1EAEF2EF6E0FF2EF02DDD24D394EB
:10184000F70180818111C0CFCD2B11F00E94FA08E1
:10185000C0918806CC2351F0D1E00E942C0B81115D
:10186000D0938706C150C9F71092880680918706E9
:101870000F900FBE80E0DF91CF911F910F91FF90ED
:10188000EF90DF9008950F931F93CF93DF938C0118
:10189000EB010E941C0B40918B0650918C06F801C5
:1018A00020813181C9018C0F9D1F4217530748F4D5
:1018B00082179307E8F4918380834817590768F4E7
:1018C00007C08217930780F04817590768F010C0C7
:1018D00060E0841B950B0E9447090E94CC0B81118C
:1018E0000BC00E94000608C0F80191838083F0CFEE
:1018F000F80191838083F1CFDF91CF911F910F91F8
:101900000895CF93DF93EC01892B51F00E941C0BBB
:1019100060E0CE010E9447090E94CC0B811102C0F9
:101920000E940006DF91CF91089580918006882360
:1019300021F081E080938706089510928706209118
:101940008A06822F90E0FC01EE0FFF1FEE0FFF1FB3
:10195000EE0FFF1FE80FF91FE054F94F30813111EE
:1019600011C02150822F90E0FC01EE0FFF1FEE0FFF
:10197000FF1FEE0FFF1FE80FF91FE054F94F3081F2
:10198000332379F3AC01440F551F440F551F440F07
:10199000551F480F591FDA01A054B94F1196ED9108
:1019A000FC9112970280F381E02D1296FC93EE9346
:1019B00011974D53594FE417F50729F4428153818C
:1019C000FD0152834183FC01EE0FFF1FEE0FFF1F4D
:1019D000EE0FFF1F8E0F9F1FFC01E054F94F018097
:1019E000F281E02D868197819093EE068093ED063B
:1019F00020938A0608950F931F93CF93DF93EC01F2
:101A00000FB6F8940F92892B21F4C091ED06D09176
:101A1000EE068E010E5F1F4FC8010E9438058C89AB
:101A20009D89892B21F0CE010C960E943805B801C2
:101A30008EE896E00E94E6048DA1813009F41DA293
:101A40000F900FBE80918906882339F00FB6F89465
:101A50000F920E94FA080F900FBE8091ED069091B0
:101A6000EE06C817D907A1F480918906882319F0DA
:101A70000E9400060DC090918E0680918D069813ED
:101A800005C01092EE061092ED0602C00E94950C61
:101A9000DF91CF911F910F910895CF93DF93EB01C9
:101AA0006091ED067091EE06645F7F4F0E9407051E
:101AB00061E0CE010E944709DF91CF9108950F9315
:101AC0001F93CF93DF93DC011596ED91FC91169750
:101AD000C681D7818E01045F1F4FC8010E9438055F
:101AE0008091800681111CC00A501109C8010E9412
:101AF00038058E8990918A06981710F480938A068B
:101B000090E09C01220F331F220F331F220F331F3F
:101B1000820F931FB8018054994F0E94E60405C0BC
:101B2000B80181EA96E00E94E604E091ED06F091AA
:101B3000EE069E898689891720F481E080938706C6
:101B400001C080E0DF91CF911F910F910895209106
:101B50008606FC01208320918B0630918C0632830F
:101B600021830895CF93DF930FB6F8940F922091BD
:101B70008B0630918C06DB014D915C914F3FBFEF9E
:101B80005B07F1F0EC01E981FA81A0918606B8814A
:101B9000BA1719F02E173F07A8F42E1B3F0B241776
:101BA000350748F4FB01421B530B518340830E94CD
:101BB000A70D80E008C0FB011182108281E003C004
:101BC00080E001C081E00F900FBEDF91CF910895BA
:101BD00081E0809387060895FB01DC0102C001903B
:0E1BE0000D9241505040D8F70895F894FFCF71
:101BEE005330204F205331204F204C204F4646007B
:101BFE0053302043205331204F204C204F4E200095
:101C0E005330204F2053312043204C204F4E200084
:061C1E0049444C450000A2
:00000001FF
