:100000000C9432000C944F000C944F000C944F0051
:100010000C944F000C944F000C944F000C94F60578
:100020000C944F000C944F000C944F000C944F0014
:100030000C944F000C944F000C944F000C944F0004
:100040000C944F000C944F000C944F000C944F00F4
:100050000C944F0067016E0173017C0182018801DD
:1000600095019B0111241FBECFE5D8E0DEBFCDBFB7
:1000700010E0A0E6B0E0E2E7F5E102C005900D92E5
:10008000A636B107D9F726E0A6E6B0E001C01D927A
:10009000AA3BB207E1F70E941D010C94B70A0C9429
:1000A0000000CF93DF9300D0CDB7DEB7809166001C
:1000B000909167000E945F0A8091680090916900AA
:1000C0000E945F0A0E94A101809360000E94630861
:1000D0009A83898361E070E0CE0101960E94A709AE
:1000E000809160008111EECF86E190E00E94FC03D8
:1000F00061E08CE00E942C0260E08AE00E942C0209
:1001000060E08BE00E942C0261E088E00E942C02FB
:1001100061E089E00E942C02809166009091670066
:100120000E94E40780916800909169000E94E407B2
:1001300080916A0090916B000E945F0AC3CFCF93B9
:10014000DF931F92CDB7DEB787E190E00E94FC03FA
:1001500061E088E00E94160360E089E00E941603D7
:10016000BE016F5F7F4F8AE00E94C20289818130A9
:1001700051F488E190E00E94FC0380916F008F5F52
:1001800080936F000EC0BE016F5F7F4F8BE00E94B7
:10019000C2028981813029F480916D008F5F809344
:1001A0006D008AE090E00E94E50960E088E00E942E
:1001B000160361E089E00E941603BE016F5F7F4F66
:1001C0008AE00E94C2028981813051F488E190E086
:1001D0000E94FC0380916E008F5F80936E000EC0C2
:1001E000BE016F5F7F4F8BE00E94C2028981813028
:1001F00029F480916C008F5F80936C008AE090E01E
:100200000E94E509A1CF80916F00863078F089E1E6
:1002100090E00E94FC0383E490E00E94EE011092C3
:100220006F0088E690E00E94E509EDCF10926F0024
:1002300088E790E00E94E509E6CFEF92FF920F93E6
:100240000F2EFAE6EF2EF0E0FF2EF02D02E020E078
:1002500030E048E552E060E070E081E590E00E9427
:10026000D2060F2EF6E6EF2EF0E0FF2EF02D01E085
:1002700020E030E044E650E060E070E08FE990E09C
:100280000E94D2060F2EF8E6EF2EF0E0FF2EF02DA2
:1002900000E020E030E044E650E060E070E083E021
:1002A00091E00E94D2060E94330880E090E00F9116
:1002B000FF90EF900895E09170004E2F50E048308D
:1002C0005105E8F5FA01E65DFF4F0C94B10AD998A3
:1002D000DA9881E08093700080E00895DB9A82E0F4
:1002E0008093700008959BB39F70807F892B8BBB98
:1002F00083E0809370000895DB9884E08093700021
:1003000081E00895DB9A85E08093700081E0089594
:100310002BB32F7030E1839FC0011124822B8BBB44
:1003200086E08093700080E00895DB9887E08093FA
:10033000700080E008951092700080E0089584E0DD
:100340000895809172008130F1F028F0823069F1D7
:100350008330E9F141C08AB38E608ABB8AB3806F73
:100360008ABB82E00E945B01809171008F5F8830C0
:1003700021F08093710081E008951092710081E076
:100380008093720008958CE00E945B01809171005F
:100390008F5F883021F08093710082E00895109281
:1003A000710082E080937200089581E00E945B01F9
:1003B000809171008F5F883021F08093710083E01D
:1003C00008951092710083E080937200089583E095
:1003D0008093720080E0089584E00895CF93909117
:1003E00072009330B1F5C82FD99ADA9882E090E084
:1003F0000E94E509DB9A82E090E00E94E5098BB358
:100400008F709C2F907F892B8BBB82E090E00E94A5
:10041000E509DB9882E090E00E94E509DB9A82E042
:1004200090E00E94E5098BB3282F2F7030E1C39F25
:10043000C0011124822B8BBB82E090E00E94E50971
:10044000DB9882E090E00E94E50982E090E00E9463
:10045000E50980E0CF910895803208F08FC0982F91
:1004600097708695869586958F5B823451F118F446
:10047000813441F085C0833409F442C0843409F4E6
:100480005EC07EC061110FC04AB321E030E0B90107
:1004900002C0660F771F9A95E2F7CB0180958423FF
:1004A0008ABB80E008954AB321E030E0B90102C080
:1004B000660F771F9A95E2F7CB01842B8ABB80E009
:1004C000089561110FC047B321E030E0B90102C0C7
:1004D000660F771F9A95E2F7CB018095842387BB3F
:1004E00080E0089547B321E030E0B90102C0660F13
:1004F000771F9A95E2F7CB01842B87BB80E00895A4
:1005000061110FC044B321E030E0B90102C0660FB1
:10051000771F9A95E2F7CB018095842384BB80E016
:10052000089544B321E030E0B90102C0660F771F9F
:100530009A95E2F7CB01842B84BB80E0089561118A
:100540000FC041B321E030E0B90102C0660F771F50
:100550009A95E2F7CB018095842381BB80E00895D2
:1005600041B321E030E0B90102C0660F771F9A95D0
:10057000E2F7CB01842B81BB80E0089581E00895F0
:1005800081E00895803208F04DC0982F97708695CD
:10059000869586958F5B8234C1F018F4813431F0F2
:1005A00043C0833409F1843471F13EC089B3282FEC
:1005B00030E0A90102C0559547959A95E2F7CA0126
:1005C0008170FB01808380E0089586B3282F30E09E
:1005D000A90102C0559547959A95E2F7CA01817025
:1005E000FB01808380E0089583B3282F30E0A901C8
:1005F00002C0559547959A95E2F7CA018170FB01B3
:10060000808380E0089580B3282F30E0A90102C0E4
:10061000559547959A95E2F7CA018170FB01808351
:1006200080E0089581E0089581E00895803208F027
:100630008FC0982F97708695869586958F5B8234AC
:1006400051F118F4813441F085C0833409F442C07B
:10065000843409F45EC07EC061110FC04BB321E049
:1006600030E0B90102C0660F771F9A95E2F7CB011F
:10067000809584238BBB80E008954BB321E030E06C
:10068000B90102C0660F771F9A95E2F7CB01842B60
:100690008BBB80E0089561110FC048B321E030E0CA
:1006A000B90102C0660F771F9A95E2F7CB018095DA
:1006B000842388BB80E0089548B321E030E0B9018D
:1006C00002C0660F771F9A95E2F7CB01842B88BB97
:1006D00080E0089561110FC045B321E030E0B90119
:1006E00002C0660F771F9A95E2F7CB0180958423AD
:1006F00085BB80E0089545B321E030E0B90102C038
:10070000660F771F9A95E2F7CB01842B85BB80E0BB
:10071000089561110FC042B321E030E0B90102C079
:10072000660F771F9A95E2F7CB018095842382BBF1
:1007300080E0089542B321E030E0B90102C0660FC5
:10074000771F9A95E2F7CB01842B82BB80E0089556
:1007500081E0089581E00895803208F049C0982F23
:1007600097708695869586958F5B8234B9F018F4DC
:10077000813431F03FC08334F9F0843459F13AC008
:100780004BB321E030E0B90102C0660F771F9A95A4
:10079000E2F7CB0184278BBB80E0089548B321E0CA
:1007A00030E0B90102C0660F771F9A95E2F7CB01DE
:1007B000842788BB80E0089545B321E030E0B9018B
:1007C00002C0660F771F9A95E2F7CB01842785BB9D
:1007D00080E0089542B321E030E0B90102C0660F25
:1007E000771F9A95E2F7CB01842782BB80E00895BA
:1007F00081E0089581E00895CF93C82F8091730020
:10080000882319F0813061F00EC061E08C2F0E94C6
:100810002C028C2F0E94AC0381E08093730003C0F4
:100820008C2F0E94AC03CF910895FC010396928314
:1008300081832FEF3FEF34832383968385839087D3
:10084000878310820895FC01118610860895CF9346
:10085000DF939C01FB01DC011196CD91DC91129795
:10086000D383C2838C819D81958384838C819D8178
:10087000DC0113967C936E9312977D836C83318792
:100880002087F90180818F5F8083DF91CF91089568
:10089000CF93DF93EB01488159814F3F2FEF5207F0
:1008A00021F4FC01A781B0850DC0DC01139601C0C5
:1008B000DF011296ED91FC9113972081318142174F
:1008C0005307B0F71296ED91FC911397FB83EA83DF
:1008D000D583C483BD83AC831396DC93CE931297E8
:1008E00099878887FC0120812F5F2083DF91CF913A
:1008F0000895CF93DF93FC01A085B185C281D38198
:10090000848195819D838C83C481D58182819381EB
:100910009B838A8311968D919C911297E817F90712
:1009200031F48481958112969C938E931197118650
:1009300010868C9181508C938C91DF91CF9108958A
:1009400031E1FC013083319722E220833197A3E328
:10095000A0833197608331977083319710823197EC
:1009600060E8608331971082319762E0608331974D
:1009700063E06083319764E06083319765E0608372
:10098000319766E06083319767E06083319768E074
:100990006083319769E06083319760E160833197CC
:1009A0003083319732E13083319733E130833197AF
:1009B00034E13083319735E13083319736E130834C
:1009C000319737E13083319738E13083319739E11E
:1009D0003083319730E23083319731E23083319781
:1009E0002083319723E220833197408331975083CE
:1009F000319726E22083319727E22083319728E23E
:100A00002083319729E22083319720E32083319797
:100A100021E32083869708951BBC8CE78ABD8BE079
:100A20008EBD89B7806189BFA091B806B091B90623
:100A3000CD91CDBFDD91DEBFFF91EF91DF91CF91E1
:100A4000BF91AF919F918F917F916F915F914F91E6
:100A50003F912F911F910F91FF90EF90DF90CF90DA
:100A6000BF90AF909F908F907F906F905F904F90CE
:100A70003F902F901F900F900FBE0F90089581E030
:100A800008950F920FB6F8940F921F9211242F928F
:100A90003F924F925F926F927F928F929F92AF920E
:100AA000BF92CF92DF92EF92FF920F931F932F93FB
:100AB0003F934F935F936F937F938F939F93AF93E6
:100AC000BF93CF93DF93EF93FF93A091B806B091BC
:100AD000B9060DB60D920EB60D920E94F909A091BD
:100AE000B806B091B906CD91CDBFDD91DEBFFF91C3
:100AF000EF91DF91CF91BF91AF919F918F917F91B6
:100B00006F915F914F913F912F911F910F91FF90A6
:100B1000EF90DF90CF90BF90AF909F908F907F909D
:100B20006F905F904F903F902F901F900F900FBE4F
:100B30000F9008950F920FB6F8940F921F92112400
:100B40002F923F924F925F926F927F928F929F92DD
:100B5000AF92BF92CF92DF92EF92FF920F931F93CB
:100B60002F933F934F935F936F937F938F939F93B5
:100B7000AF93BF93CF93DF93EF93FF93A091B8060A
:100B8000B091B9060DB60D920EB60D920E946D0889
:100B900081110E94F909A091B806B091B906CD91D2
:100BA000CDBFDD91DEBFFF91EF91DF91CF91BF917E
:100BB000AF919F918F917F916F915F914F913F91F5
:100BC0002F911F910F91FF90EF90DF90CF90BF90EA
:100BD000AF909F908F907F906F905F904F903F90DD
:100BE0002F901F900F900FBE0F9008950E949A05AE
:100BF0001895CF93DF93EC010E945D0880917400FB
:100C000090917500892B31F489E790E090937500FD
:100C1000809374002091760030917700C9018C0F89
:100C20009D1F8B3D45E0940770F42817390770F439
:100C3000C0917400D0917500C20FD31F90937700BC
:100C40008093760005C0C0E0D0E002C0C0E0D0E0F4
:100C50000E942809CE01DF91CF9108950895E09177
:100C60008006F09181068081811107C08FEF9FEF90
:100C700090935806809357060895E0918006F0916E
:100C800081060580F681E02D0680F781E02D8281C6
:100C90009381909358068093570608950CE616E0CA
:100CA00080916B068823E1F30FB6F8940F92D80178
:100CB0001596ED91FC911697C681D781CE010296CB
:100CC0000E94790480916106815080936106809131
:100CD0006B06815080936B060F900FBE8F89988DA5
:100CE0000E942E06CE010E942E0680916B06811175
:100CF000DBCFD6CFFF920F931F93CF93DF93EC01FF
:100D0000F62E00915F06109160068091B8069091D2
:100D1000B90602960E947904CF3F8FEFD80769F495
:100D2000FF2059F06091B8067091B9066E5F7F4F51
:100D300082E696E00E9427042FC0C00FD11FE091E9
:100D4000B806F091B906D383C283C017D10768F4FF
:100D50006091B8067091B90680917E0690917F06E9
:100D60006E5F7F4F0E94480417C06091B806709173
:100D7000B90680918006909181066E5F7F4F0E9438
:100D800048048091570690915806C817D90720F457
:100D9000D0935806C0935706DF91CF911F910F91C2
:100DA000FF9008954F925F926F927F928F929F92E1
:100DB000AF92BF92CF92DF92EF92FF920F93CF93B9
:100DC000DF934C016B015A012901CA010E94F90508
:100DD0003C01892B09F4E7C086E290E00E94F90506
:100DE000EC01892B59F0788E6F8A81E0A81AB1083E
:100DF000A60CB71CC114D10429F420C0C3010E9461
:100E00002E06D1C0D6018C91898F8C918823A1F0B8
:100E1000AE01465E5F4FF6013196B8E0CB0ED11CB5
:100E2000CF012191DA012D93AD01DC018C91882352
:100E300019F0EC15FD05A1F718A201C0198E0430B8
:100E400008F003E00E8B6E01B2E0CB0ED11CC601A0
:100E50000E942304CE010C960E942304D987C887E0
:100E600084E090E0801B91099D878C87DB8BCA8B87
:100E700019A21AA21BA21CA21DA2A201B401C501A3
:100E80000E94A00499838883E114F10419F0F7010A
:100E9000D183C0830FB6F8940F92809161068F5F63
:100EA000809361068091B8069091B906892BD1F59F
:100EB000D093B906C093B80680916106813009F0DD
:100EC00041C084E996E00E9415048DE996E00E94F5
:100ED000150486EA96E00E9415048FEA96E00E94C7
:100EE00015048BE896E00E94150482E896E00E94C3
:100EF000150485E796E00E9415048CE696E00E94B2
:100F0000150482E696E00E9415048BE896E0909323
:100F100081068093800682E896E090937F06809316
:100F20007E0610C080915D0681110CC0E091B8066C
:100F3000F091B90696898E89891720F0D093B90669
:100F4000C093B806809159068F5F809359068E89A9
:100F500090915E06981710F480935E0690E09C01D5
:100F6000220F331F220F331F220F331F820F931FB5
:100F7000B6018C56994F0E9427040F900FBE8091A6
:100F80005D06882361F0E091B806F091B906968974
:100F90008E89981730F40E94410581E005C081E0F8
:100FA00003C081E001C08FEFDF91CF910F91FF90DF
:100FB000EF90DF90CF90BF90AF909F908F907F90F9
:100FC0006F905F904F9008950F931F93CF93DF938F
:100FD0002091B8063091B9068217930709F43EC0F4
:100FE000009709F43BC00FB6F8940F92FC012285DC
:100FF00033852256364081F5FC0124893589F6E097
:1010000025373F0749F1232B39F5EC018C010E5FA1
:101010001F4FC8010E9479048E8990915E0698172F
:1010200010F480935E0690E09C01220F331F220F84
:10103000331F220F331F820F931FB8018C56994F15
:101040000E942704E091B806F091B9069E8986892E
:10105000981710F00E9441050F900FBEDF91CF91BD
:101060001F910F910895EF92FF920F930F2EF5E5C8
:10107000EF2EF6E0FF2EF02D00E020E030E045E519
:1010800050E061E670E08EE496E00E94D206813086
:1010900081F4F8948FEF9FEF909358068093570652
:1010A00081E080935D061092600610925F060E94B8
:1010B0000C050F91FF90EF900895809154068F5F7B
:1010C0008093540608950FB6F8940F9280915F06AE
:1010D000909160060F900FBE0895CF92DF92EF922D
:1010E000FF920F931F93CF93DF938091540681114A
:1010F00099C0E0905F06F09060068FEFE81AF80A5A
:10110000F0926006E0925F06E114F104B9F4809178
:1011100080069091810620917E0630917F06309363
:1011200081062093800690937F0680937E068091AF
:101130005A068F5F80935A060E942F0680915706A9
:1011400090915806E816F90610F4D12C53C0D12C12
:10115000CC24C394E0918006F091810680818111B6
:1011600007C08FEF9FEF909358068093570642C0B9
:10117000E0918006F09181060580F681E02DC68120
:10118000D7818A819B81E816F90628F49093580646
:10119000809357062FC08E010E5F1F4FC8010E941B
:1011A00079048C899D89892B21F0CE010C960E94AF
:1011B00079048E8990915E06981710F480935E06EC
:1011C00090E09C01220F331F220F331F220F331F89
:1011D000820F931FB8018C56994F0E942704E0910B
:1011E000B806F091B9069E898689981708F4B2CF9F
:1011F000DC2CB0CFE091B806F091B906868990E07A
:10120000FC01EE0FFF1FEE0FFF1FEE0FFF1F8E0FF3
:101210009F1FFC01EC56F94F8081823048F0DD249D
:10122000D39406C080915C068F5F80935C06D12CBE
:1012300080915B06882311F0DD24D3948D2DDF91FE
:10124000CF911F910F91FF90EF90DF90CF90089575
:10125000DF92EF92FF920F931F93CF93DF930FB61E
:10126000F8940F9280915406815080935406809197
:10127000540681115FC080916106811133C05DC049
:10128000D7011596ED91FC911697C681D781CE01B5
:101290000C960E9479048E010E5F1F4FC8010E94B8
:1012A00079048E8990915E06981710F480935E06FB
:1012B00090E09C01220F331F220F331F220F331F98
:1012C000820F931FB8018C56994F0E942704E0911A
:1012D000B806F091B9069E898689981768F0D09271
:1012E0005B060AC0C0E0D0E00F2EF5E7EF2EF6E077
:1012F000FF2EF02DDD24D394F70180818111C0CF22
:10130000CD2B11F00E942F06C0915C06CC2351F02A
:10131000D1E00E946D088111D0935B06C150C9F7DE
:1013200010925C0680915B06882331F00E94410593
:1013300081E003C080E001C080E00F900FBEDF912C
:10134000CF911F910F91FF90EF90DF9008950F9331
:101350001F93CF93DF938C01EB010E945D084091B6
:101360005F0650916006F80120813181C9018C0F20
:101370009D1F4217530748F482179307E8F491839F
:1013800080834817590768F407C08217930780F0D5
:101390004817590768F010C060E0841B950B0E9445
:1013A0007A060E94280981110BC00E94410508C0DD
:1013B000F80191838083F0CFF80191838083F1CF8E
:1013C000DF91CF911F910F910895CF93DF93EC019F
:1013D000892B51F00E945D0860E0CE010E947A06E0
:1013E0000E942809811102C00E944105DF91CF911E
:1013F000089580915406882321F081E080935B0654
:10140000089510925B0620915E06822F90E0FC0109
:10141000EE0FFF1FEE0FFF1FEE0FFF1FE80FF91F6C
:10142000EC56F94F3081311111C02150822F90E0DC
:10143000FC01EE0FFF1FEE0FFF1FEE0FFF1FE80F67
:10144000F91FEC56F94F3081332379F3AC01440F87
:10145000551F440F551F440F551F480F591FDA01E0
:10146000AC56B94F1196ED91FC9112970280F38121
:10147000E02D1296FC93EE9311974956594FE417BD
:10148000F50729F442815381FD0152834183FC0118
:10149000EE0FFF1FEE0FFF1FEE0FFF1F8E0F9F1FA0
:1014A000FC01EC56F94F0180F281E02D8681978195
:1014B0009093B9068093B80620935E0608950F9323
:1014C0001F93CF93DF93EC010FB6F8940F92892B03
:1014D00021F4C091B806D091B9068E010E5F1F4F5E
:1014E000C8010E9479048C899D89892B21F0CE0145
:1014F0000C960E947904B80182E696E00E942704C7
:101500008DA1813009F41DA20F900FBE80915D0660
:10151000882339F00FB6F8940F920E942F060F908F
:101520000FBE8091B8069091B906C817D907A1F4EB
:1015300080915D06882319F00E9441050DC09091AD
:10154000620680916106981305C01092B906109248
:10155000B80602C00E94F909DF91CF911F910F9147
:101560000895EE0FFF1F0590F491E02D0994F89473
:02157000FFCFAB
:061572000149444C450054
:00000001FF
