S0190000537065656420636F6D7065746974696F6E2E737265634F
S11300000C942A000C9447000C9447000C9447006D
S11300100C9447000C9447000C9447000C9465061C
S11300200C9447000C9447000C9447000C94470030
S11300300C9447000C9447000C9447000C94470020
S11300400C9447000C9447000C9447000C94470010
S11300500C94470011241FBECFE5D8E0DEBFCDBF0E
S113006010E0A0E6B0E0E6E8FCE102C005900D92E5
S1130070AA3CB107D9F727E0AAECB0E001C01D9271
S1130080A133B207E1F70E948D020C94410E0C9447
S113009000008091D4009091D5000E94070D8091BA
S11300A0D2009091D3000E94070D8091D0009091CE
S11300B0D1000E94070D0E94050360E088E00E94C1
S11300C09C0360E089E00E949C038091D40090919D
S11300D0D5000E94B70A8091D2009091D3000E946B
S11300E0B70A8091D6009091D7000E94070DE3CF04
S11300F0CF93DF9300D01F92CDB7DEB760E083E0EB
S11301000E94CF0790932E0780932D0760E083E031
S11301100E94CF0790932A07809329070E942E0BF1
S11301209A83898386E190E00E94D604BE016D5FC4
S11301307F4F88E00E9432048B81813099F4809152
S11301402D0790912E070E94FE08833058F420E07A
S113015040E050E060E070E080912D0790912E0720
S11301600E94DB07BE016D5F7F4F89E00E9432046D
S11301708B81813099F48091290790912A070E94FC
S1130180FE08833058F420E040E050E060E070E086
S11301908091290790912A070E94DB0786E190E06D
S11301A00E94D60462E370E0CE0101960E944F0CD7
S11301B0B5CFCF93DF9300D0CDB7DEB7FF24F39450
S11301C00E942E0B9A83898387E190E00E94D604D3
S11301D080912D0790912E070E94FE08182F809180
S11301E0290790912A070E94FE08082F08C060E0A2
S11301F070E080912D0790912E070E9474088091E1
S11302002D0790912E070E94FE088111F0CF08C09F
S113021060E070E08091290790912A070E94740899
S11302208091290790912A070E94FE088111F0CF3E
S1130230123008F44EC00230B8F18091CF00811121
S113024011C18091CE0081111CC08091CD008F5FBF
S11302508093CD008091CC008F5F8093CC001FC031
S11302608091CE0081111BC08091CD0018161CF422
S113027081508093CD008091CC008F5F8093CC001F
S11302800EC0813061F48091CD008F5F8093CD00EA
S11302908091CC0018161CF481508093CC00F0920D
S11302A0CF00F092CE0030C08091CF0081110CC0FD
S11302B08091CD008F5F8093CD008091CC00181683
S11302C01CF481508093CC00F092CF001092CE00A9
S11302D01BC00230A8F08091CE0081110CC0809127
S11302E0CD0018161CF481508093CD008091CC0071
S11302F08F5F8093CC001092CF00F092CE0004C0A8
S11303001092CF001092CE0040E950E061E070E01E
S113031081E090E00E946A038091CD0049E050E0C2
S113032061E070E0082E000C990B0E94750382ECCA
S113033090E00E94420349E950E061E070E082E00D
S113034090E00E946A038091CC0049E050E062E0B2
S113035070E0082E000C990B0E94750382EC90E06B
S11303600E9442038091CD00823309F07FC08091C6
S1130370CC00823309F047C01092CD001092CC001B
S11303800E94580340E650E061E070E081E090E0B4
S11303900E946A038091D0009091D1000E94B70A14
S11303A08091D4009091D5000E94070D8091D200D5
S11303B09091D3000E94070D4AC08091CC008233F3
S11303C009F045C01092CD001092CC000E94580351
S11303D040E750E061E070E081E090E00E946A0351
S11303E08091D0009091D1000E94B70A8091D400EE
S11303F09091D5000E94070D8091D2009091D30076
S11304000E94070D24C08091CC00823304F5109221
S1130410CD001092CC000E94580340E850E061E007
S113042070E081E090E00E946A038091D000909196
S1130430D1000E94B70A8091D4009091D5000E9407
S1130440070D8091D2009091D3000E94070D87E19F
S113045090E00E94D60466E970E0CE0101960E9405
S11304604F0CAECE813009F01ACFFACE82330CF4A1
S1130470A4CFEDCFCF93DF9300D0CDB7DEB711E09B
S11304800E942E0B9A83898388E190E00E94D6040F
S11304908091CB008F5F8093CB008931E8F4809109
S11304A0CA00882319F0813061F02CC042EA50E080
S11304B061E070E082E090E00E946A031093CA0059
S11304C021C044EB50E061E070E082E090E00E94E3
S11304D06A031092CA0016C00E9458031092CB00FF
S11304E08091D4009091D5000E94B70A8091D200E7
S11304F09091D3000E94B70A8091D0009091D100CE
S11305000E94070D88E190E00E94D60468EC70E038
S1130510CE0101960E944F0CB3CFEF92FF920F933E
S11305200F2EF6EDEF2EF0E0FF2EF02D04E020E08C
S113053030E044E650E060E070E089E490E00E943E
S1130540AB090F2EF4EDEF2EF0E0FF2EF02D03E0BB
S113055020E030E044E650E060E070E088E790E0BE
S11305600E94AB090F2EF2EDEF2EF0E0FF2EF02DDE
S113057002E020E030E044E650E060E070E089ED25
S113058090E00E94AB090F2EF0EDEF2EF0E0FF2E6D
S1130590F02D01E020E030E044E650E060E070E05F
S11305A08AE392E00E94AB090E94FE0A80E090E098
S11305B00F91FF90EF900895CF93C82FD998DA98B0
S11305C0DB9A82E090E00E948D0C8BB38F709C2F9D
S11305D0907F892B8BBBDB9882E090E00E948D0C8E
S11305E0DB9A82E090E00E948D0C8BB3282F2F7051
S11305F030E1C39FC0011124822B8BBBDB9882E0C6
S113060090E00E948D0CCF9108958AB38E608ABBCE
S11306108AB3806F8ABB82E00E94DC0288E20E9477
S1130620DC028CE00E94DC0281E00E94DC0208957E
S1130630CF93C82FD99ADA98DB9A81E090E00E9490
S11306408D0C8BB38F709C2F907F892B8BBBDB9889
S113065081E090E00E948D0CDB9A81E090E00E94A2
S11306608D0C8BB3282F2F7030E1C39FC001112450
S1130670822B8BBBDB9881E090E00E948D0C80E0A4
S1130680CF9108950F931F93CF93FC01808188230A
S113069059F08F01C0E00E941803CF5FF801EC0FFE
S11306A0F11D80818111F7CFCF911F910F91089592
S11306B081E00E94DC020895813019F0823021F03B
S11306C005C09FE7960F02C09FEB960F892F0E94EB
S11306D0DC020895CF93DF93EA010E945C03CE010C
S11306E00E944203DF91CF9108950F931F93CF93FC
S11306F0DF93CDB7DEB7A8970FB6F894DEBF0FBE71
S1130700CDBF162F042F4AE050E0BE016F5F7F4F2C
S11307100E94010EAE014F5F5F4F602F812F0E9438
S11307206A03A8960FB6F894DEBF0FBECDBFDF9163
S1130730CF911F910F910895803208F08FC0982FA8
S113074097708695869586958F5B823451F118F45F
S1130750813441F085C0833409F442C0843409F4FF
S11307605EC07EC061110FC04AB321E030E0B90120
S113077002C0660F771F9A95E2F7CB018095842318
S11307808ABB80E008954AB321E030E0B90102C099
S1130790660F771F9A95E2F7CB01842B8ABB80E022
S11307A0089561110FC047B321E030E0B90102C0E0
S11307B0660F771F9A95E2F7CB018095842387BB58
S11307C080E0089547B321E030E0B90102C0660F2C
S11307D0771F9A95E2F7CB01842B87BB80E00895BD
S11307E061110FC044B321E030E0B90102C0660FCB
S11307F0771F9A95E2F7CB018095842384BB80E030
S1130800089544B321E030E0B90102C0660F771FB8
S11308109A95E2F7CB01842B84BB80E008956111A3
S11308200FC041B321E030E0B90102C0660F771F69
S11308309A95E2F7CB018095842381BB80E00895EB
S113084041B321E030E0B90102C0660F771F9A95E9
S1130850E2F7CB01842B81BB80E0089581E0089509
S113086081E00895803208F04DC0982F97708695E6
S1130870869586958F5B8234C1F018F4813431F00B
S113088043C0833409F1843471F13EC089B3282F05
S113089030E0A90102C0559547959A95E2F7CA013F
S11308A08170FB01808380E0089586B3282F30E0B7
S11308B0A90102C0559547959A95E2F7CA0181703E
S11308C0FB01808380E0089583B3282F30E0A901E1
S11308D002C0559547959A95E2F7CA018170FB01CC
S11308E0808380E0089580B3282F30E0A90102C0FE
S11308F0559547959A95E2F7CA018170FB0180836B
S113090080E0089581E0089581E00895803208F040
S113091049C0982F97708695869586958F5B82340B
S1130920B9F018F4813431F03FC08334F9F08434E1
S113093059F13AC04BB321E030E0B90102C0660F6F
S1130940771F9A95E2F7CB0184278BBB80E008954B
S113095048B321E030E0B90102C0660F771F9A95D1
S1130960E2F7CB01842788BB80E0089545B321E0FA
S113097030E0B90102C0660F771F9A95E2F7CB0108
S1130980842785BB80E0089542B321E030E0B901BB
S113099002C0660F771F9A95E2F7CB01842782BBCA
S11309A080E0089581E0089581E00895CF93C82FF1
S11309B061E00E949C038C2F0E948604CF910895CD
S11309C0FC010396928381832FEF3FEF34832383CB
S11309D0968385839087878310820895FC0111860E
S11309E010860895CF93DF939C01FB01DC011196DF
S11309F0CD91DC911297D383C2838C819D819583A1
S1130A0084838C819D81DC0113967C936E93129771
S1130A107D836C8331872087F90180818F5F808398
S1130A20DF91CF910895CF93DF93EB0148815981F2
S1130A304F3F2FEF520721F4FC01A781B0850DC071
S1130A40DC01139601C0DF011296ED91FC9113971E
S1130A502081318142175307B0F71296ED91FC9132
S1130A601397FB83EA83D583C483BD83AC83139636
S1130A70DC93CE93129799878887FC0120812F5F9E
S1130A802083DF91CF910895CF93DF93FC01A0855C
S1130A90B185C281D381848195819D838C83C481F6
S1130AA0D581828193819B838A8311968D919C91B8
S1130AB01297E817F90731F48481958112969C9373
S1130AC08E931197118610868C9181508C938C9102
S1130AD0DF91CF91089531E1FC013083319722E217
S1130AE020833197A3E3A083319760833197708388
S1130AF031971082319760E8608331971082319783
S1130B0062E06083319763E06083319764E06083DF
S1130B10319765E06083319766E06083319767E0E1
S1130B206083319768E06083319769E0608331972F
S1130B3060E1608331973083319732E130833197BC
S1130B4033E13083319734E13083319735E13083B9
S1130B50319736E13083319737E13083319738E18B
S1130B603083319739E13083319730E230833197E4
S1130B7031E2308331972083319723E22083319708
S1130B80408331975083319726E22083319727E2BF
S1130B902083319728E22083319729E220833197FB
S1130BA020E32083319721E32083869708951BBC9B
S1130BB08CE78ABD8BE08EBD89B7806189BFA09127
S1130BC02507B0912607CD91CDBFDD91DEBFFF9102
S1130BD0EF91DF91CF91BF91AF919F918F917F91D1
S1130BE06F915F914F913F912F911F910F91FF90C2
S1130BF0EF90DF90CF90BF90AF909F908F907F90B9
S1130C006F905F904F903F902F901F900F900FBE6A
S1130C100F90089581E008950F920FB6F8940F9203
S1130C201F9211242F923F924F925F926F927F9264
S1130C308F929F92AF92BF92CF92DF92EF92FF92E8
S1130C400F931F932F933F934F935F936F937F93D0
S1130C508F939F93AF93BF93CF93DF93EF93FF93C0
S1130C60A0912507B09126070DB60D920EB60D92F0
S1130C700E94A10CA0912507B0912607CD91CDBF6C
S1130C80DD91DEBFFF91EF91DF91CF91BF91AF91E5
S1130C909F918F917F916F915F914F913F912F9190
S1130CA01F910F91FF90EF90DF90CF90BF90AF9086
S1130CB09F908F907F906F905F904F903F902F9078
S1130CC01F900F900FBE0F9008951F920F920FB6B2
S1130CD00F9211242F933F934F935F936F937F93BE
S1130CE08F939F93AF93BF93EF93FF930E94380B1F
S1130CF0FF91EF91BF91AF919F918F917F916F91F0
S1130D005F914F913F912F910F900FBE0F901F90C5
S1130D101895CF93DF93EC010E94280B8091D800A3
S1130D209091D900892B31F48DED90E09093D90006
S1130D308093D8002091DA003091DB00C9018C0F38
S1130D409D1F8B3D45E0940770F42817390770F414
S1130D50C091D800D091D900C20FD31F9093DB006B
S1130D608093DA0005C0C0E0D0E002C0C0E0D0E06B
S1130D700E94D80BCE01DF91CF91089508950FB64C
S1130D80F8940F92FC01928D0F900FBE81E09111A7
S1130D9080E008950F931F93CF93DF93EC01042F0A
S1130DA01A8D4C8D4423B9F1011116C050E08A818B
S1130DB09B810E94F80D2C8D8A819B81820F911D4D
S1130DC09B838A832C813D818217930720F188813C
S1130DD099819B838A831FC050E08E819F810E94EA
S1130DE0F80D8C8D90E09195819591092E813F812C
S1130DF0280F391F3F832E834881598124173507D3
S1130E0030F42C813D81820F931F9F838E830230A7
S1130E1011F4111111501F5F1A8F80E0DF91CF91EF
S1130E201F910F910895EF92FF920F931F93CF9309
S1130E308C010FB6F8940F92FC01C68D1C16ACF40D
S1130E408189811106C011C0F8018189811105C011
S1130E500CC07801F1E1EF0EF11CC7010E946B0D8B
S1130E6081110E94F40DC15079F78FEFF801868F3C
S1130E700F900FBE0FB6F8940F92C58D1C16ACF4EC
S1130E808085811106C011C0F8018085811105C0DB
S1130E900CC07801F8E0EF0EF11CC7010E946B0D45
S1130EA081110E94F40DC15079F78FEFF801858FFD
S1130EB00F900FBECF911F910F91FF90EF90089567
S1130EC0CF93DF93EC010FB6F8940F92E881F98188
S1130ED08B8D2C8D90E030E0829FA001839F500D7C
S1130EE0929F500D11244E0F5F1F5D834C831A8E09
S1130EF0FB83EA830197829FA001839F500D929FF9
S1130F00500D1124CF01840F951F9F838E838FEF83
S1130F108D8F8E8F611108C08885882369F0CE017A
S1130F2008960E946B0D08C0CE0108960E94E0044A
S1130F30CE0141960E94E0040F900FBE81E0DF9144
S1130F40CF9108950F931F93CF93DF93082F162FFC
S1130F506623C1F0869FC00111244F960E94890622
S1130F60EC01009741F415C00B8F1C8F61E0CE019A
S1130F700E9460070EC04F9699838883F5CFD9836A
S1130F80C883F2CF8FE190E00E948906EC01892B9F
S1130F90B1F7CE01DF91CF911F910F910895CF93B7
S1130FA0C62F42E060E00E94A207009711F0FC0106
S1130FB0C28FCF9108959F92AF92BF92CF92DF924A
S1130FC0EF92FF920F931F93CF93DF9300D000D043
S1130FD01F92CDB7DEB78C016B015D834C83A22ECB
S1130FE0B12C992493947C0188E0E80EF11C0FB68F
S1130FF0F8940F92F801928D838D981718F0F2E00F
S1131000AF1211C04A2DB601C8010E94CA06F801E8
S11310108189882321F0C80141960E946B0D0F90AD
S11310200FBE81E050C08C819D81892B21F40F90EB
S11310300FBE80E048C0B11005C0CE0101960E94E9
S1131040B30DB92C0F900FBE0E94280B0FB6F89465
S11310500F92F801858D8F3F09F4158EF801868D66
S11310608F3F09F4168E0F900FBEBE016C5F7F4F49
S1131070CE0101960E94BE0D81111FC00FB6F894D7
S11310800F92F801928D0F900FBE838D98130FC0AD
S11310906C817D81C7010E94590DC8010E9413070C
S11310A00E94D80B8111A3CF0E940C06A0CFC801C7
S11310B00E9413070E94D80B9ACFC8010E941307FD
S11310C00E94D80B80E00F900F900F900F900F901C
S11310D0DF91CF911F910F91FF90EF90DF90CF9010
S11310E0BF90AF909F900895CF92DF92EF92FF92BE
S11310F00F931F93CF93DF9300D000D01F92CDB7EF
S1131100DEB78C017D836C83D12CCC24C3947C0109
S113111081E1E80EF11C0FB6F8940F92F801828D6C
S1131120882369F08150828F8085882321F0C8014B
S113113008960E946B0D0F900FBE81E051C08C8108
S11311409D81892B21F40F900FBE80E049C0D110FE
S113115005C0CE0101960E94B30DDC2C0F900FBE8A
S11311600E94280B0FB6F8940F92F801858D8F3FDB
S113117009F4158EF801868D8F3F09F4168E0F90B1
S11311800FBEBE016C5F7F4FCE0101960E94BE0D63
S113119081111AC0C8010E94BF06882379F06C81AE
S11311A07D81C7010E94590DC8010E9413070E9446
S11311B0D80B8111B0CF0E940C06ADCFC8010E949C
S11311C013070E94D80BA7CFC8010E9413070E94DF
S11311D0D80BC8010E94BF06882309F49CCF80E085
S11311E00F900F900F900F900F90DF91CF911F9160
S11311F00F91FF90EF90DF90CF9008950FB6F89481
S11312000F92FC01828D0F900FBE0895E091E406C9
S1131210F091E5068081811107C08FEF9FEF9093D5
S1131220BC068093BB060895E091E406F091E506C0
S11312300580F681E02D0680F781E02D828193817F
S11312409093BC068093BB06089500ED16E0809150
S1131250CF06882329F10FB6F8940F92D80115967A
S1131260ED91FC911697C681D781CE0102960E941A
S113127044058091C50681508093C5068091CF06B0
S113128081508093CF060F900FBE8F89988D0E9456
S1131290BE06CE010E94BE068091CF068111DBCF2F
S11312A00E940C06D4CFFF920F931F93CF93DF932A
S11312B0EC01F62E0091C3061091C4068091250717
S11312C09091260702960E944405CF3F8FEFD807DE
S11312D069F4FF2059F060912507709126076E5F2D
S11312E07F4F86EC96E00E94F2042FC0C00FD11FFE
S11312F0E0912507F0912607D383C283C017D10755
S113130068F460912507709126078091E206909118
S1131310E3066E5F7F4F0E94130517C06091250797
S1131320709126078091E4069091E5066E5F7F4FE9
S11313300E9413058091BB069091BC06C817D9077B
S113134020F4D093BC06C093BB06DF91CF911F91CC
S11313500F91FF9008954F925F926F927F928F92B8
S11313609F92AF92BF92CF92DF92EF92FF920F9330
S11313701F93CF93DF934C016B015A012901CA01DA
S11313800E9489063C01892B09F4DFC086E290E0C3
S11313900E948906EC01892B59F0788E6F8A81E0CE
S11313A0A81AB108A60CB71CC114D10429F420C092
S11313B0C3010E94BE06C9C0D6018C91898F8C914D
S11313C08823A1F0AE01465E5F4FF6013196B8E086
S11313D0CB0ED11CCF012191DA012D93AD01DC019B
S11313E08C91882319F0CE16DF06A1F718A201C04C
S11313F0198E053008F004E00E8B6E01B2E0CB0EBE
S1131400D11CC6010E94EE04CE010C960E94EE048B
S1131410D987C88785E090E0801B91099D878C87D8
S1131420DB8BCA8B19A21AA21BA21CA21DA2A201A9
S1131430B401C5010E946B0599838883E114F1040A
S113144019F0F701D183C0830FB6F8940F928091FD
S1131450C5068F5F8093C506809125079091260766
S1131460892BD1F5D0932607C09325078091C50613
S1131470813009F041C008EF16E00F2EF5E2EF2E9F
S1131480F7E0FF2EF02DC8010E94E004075F1F4F14
S11314900E151F05C1F78FEE96E00E94E00486EE5C
S11314A096E00E94E00489ED96E00E94E00480ED5D
S11314B096E00E94E00486EC96E00E94E0048FEE41
S11314C096E09093E5068093E40686EE96E090938A
S11314D0E3068093E20610C08091C10681110CC01E
S11314E0E0912507F091260796898E89891720F0C7
S11314F0D0932607C09325078091BD068F5F809304
S1131500BD068E899091C206981710F48093C20686
S113151090E09C01220F331F220F331F220F331F31
S1131520820F931FB6018850994F0E94F2040F90C6
S11315300FBE8091C106882331F0809125079091D8
S1131540260781E003C081E001C08FEFDF91CF91D6
S11315501F910F91FF90EF90DF90CF90BF90AF90CD
S11315609F908F907F906F905F904F9008950F930E
S11315701F93CF93DF93209125073091260782177D
S11315809307B9F10097A9F10FB6F8940F92FC01F3
S113159022853385265C364051F5FC012489358942
S11315A0F6E0293D3F0719F1232B09F5EC018C01E5
S11315B00E5F1F4FC8010E9444058E899091C20698
S11315C0981710F48093C20690E09C01220F331FF9
S11315D0220F331F220F331F820F931FB80188502D
S11315E0994F0E94F20480912507909126070F904D
S11315F00FBEDF91CF911F910F910895EF92FF924B
S11316000F930F2EF9EBEF2EF6E0FF2EF02D00E0F6
S113161020E030E045E550E064EC70E085E299E0DC
S11316200E94AB09813081F4F8948FEF9FEF90937F
S1131630BC068093BB0681E08093C1061092C40669
S11316401092C3060E94D7050F91FF90EF90089562
S11316508091B8068F5F8093B80608950FB6F8940A
S11316600F928091C3069091C4060F900FBE089507
S1131670EF92FF920F931F93CF93DF938091B8065D
S1131680811189C0E090C306F090C4068FEFE81A78
S1131690F80AF092C406E092C306E114F104B9F426
S11316A08091E4069091E5062091E2063091E306EC
S11316B03093E5062093E4069093E3068093E206D4
S11316C08091BE068F5F8093BE060E9406098091BA
S11316D0BB069091BC06E816F90608F461C0E091D7
S11316E0E406F091E5068081882379F0E091E40630
S11316F0F091E5060580F681E02DC681D7818A81C7
S11317009B81E816F906D8F415C08FEF9FEF9093EC
S1131710BC068093BB0644C0E091E406F091E50664
S11317200580F681E02DC681D7818A819B81E816E8
S1131730F90628F49093BC068093BB0631C08E0151
S11317400E5F1F4FC8010E9444058C899D89892B17
S113175021F0CE010C960E9444058E899091C20618
S1131760981710F48093C20690E09C01220F331F57
S1131770220F331F220F331F820F931FB80188508B
S1131780994F0E94F204E091E406F091E50680810D
S11317908111C2CFBACF8091C0068F5F8093C006FB
S11317A080E0DF91CF911F910F91FF90EF9008950A
S11317B0DF92EF92FF920F931F93CF93DF930FB6B5
S11317C0F8940F928091B80681508093B806809166
S11317D0B806811159C08091C506811133C054C027
S11317E0D7011596ED91FC911697C681D781CE014C
S11317F00C960E9444058E010E5F1F4FC8010E9483
S113180044058E899091C206981710F48093C206FD
S113181090E09C01220F331F220F331F220F331F2E
S1131820820F931FB8018850994F0E94F204E091EF
S11318302507F09126079E898689981768F0D0922B
S1131840BF060AC0C0E0D0E00F2EF9EDEF2EF6E09F
S1131850FF2EF02DDD24D394F70180818111C0CFB8
S1131860CD2B11F00E940609C091C006CC2351F083
S1131870D1E00E94380B8111D093BF06C150C9F743
S11318801092C0068091BF060F900FBE80E0DF91DA
S1131890CF911F910F91FF90EF90DF9008950F93D8
S11318A01F93CF93DF938C01EB010E94280B40918F
S11318B0C3065091C406F80120813181C9018C0FFF
S11318C09D1F4217530748F482179307E8F4918346
S11318D080834817590768F407C08217930780F07C
S11318E04817590768F010C060E0841B950B0E94EC
S11318F053090E94D80B81110BC00E940C0608C02A
S1131900F80191838083F0CFF80191838083F1CF34
S1131910DF91CF911F910F910895CF93DF93EC0145
S1131920892B51F00E94280B60E0CE010E945309DC
S11319300E94D80B811102C00E940C06DF91CF9146
S113194008958091B806882321F081E08093BF0632
S113195008951092BF062091C206822F90E0FC01E8
S1131960EE0FFF1FEE0FFF1FEE0FFF1FE80FF91F13
S1131970E850F94F3081311111C02150822F90E08D
S1131980FC01EE0FFF1FEE0FFF1FEE0FFF1FE80F0E
S1131990F91FE850F94F3081332379F3AC01440F38
S11319A0551F440F551F440F551F480F591FDA0187
S11319B0A850B94F1196ED91FC9112970280F381D2
S11319C0E02D1296FC93EE9311974550594FE4176E
S11319D0F50729F442815381FD0152834183FC01BF
S11319E0EE0FFF1FEE0FFF1FEE0FFF1F8E0F9F1F47
S11319F0FC01E850F94F0180F281E02D8681978146
S1131A0090932607809325072093C20608950F9389
S1131A101F93CF93DF93EC010FB6F8940F92892BA9
S1131A2021F4C0912507D09126078E010E5F1F4F28
S1131A30C8010E9444058C899D89892B21F0CE011F
S1131A400C960E944405B80186EC96E00E94F204CC
S1131A508DA1813009F41DA20F900FBE8091C106A3
S1131A60882339F00FB6F8940F920E9406090F905C
S1131A700FBE8091250790912607C817D907A1F4B6
S1131A808091C106882319F00E940C060DC0909124
S1131A90C6068091C506981305C0109226071092B9
S1131AA0250702C00E94A10CDF91CF911F910F91D5
S1131AB00895CF93DF93EB0160912507709126077A
S1131AC0645F7F4F0E94130561E0CE010E945309B9
S1131AD0DF91CF9108950F931F93CF93DF93DC0190
S1131AE01596ED91FC911697C681D7818E01045FFE
S1131AF01F4FC8010E9444058091B80681111CC083
S1131B000A501109C8010E9444058E899091C206A9
S1131B10981710F48093C20690E09C01220F331FA3
S1131B20220F331F220F331F820F931FB8018850D7
S1131B30994F0E94F20405C0B80189ED96E00E9415
S1131B40F204E0912507F09126079E89868989177A
S1131B5020F481E08093BF0601C080E0DF91CF9143
S1131B601F910F9108952091BE06FC0120832091BE
S1131B70C3063091C406328321830895CF93DF9343
S1131B800FB6F8940F922091C3063091C406DB017E
S1131B904D915C914F3FBFEF5B07F1F0EC01E981A0
S1131BA0FA81A091BE06B881BA1719F02E173F0723
S1131BB0A8F42E1B3F0B2417350748F4FB01421BE6
S1131BC0530B518340830E94B30D80E008C0FB0196
S1131BD01182108281E003C080E001C081E00F9097
S1131BE00FBEDF91CF91089581E08093BF060895E1
S1131BF0FB01DC0102C001900D9241505040D8F726
S1131C0008954532510520F4423010F00C940C0E26
S1131C10FB011082CB010895BB274A3031F499238C
S1131C2022F4BDE2909581959F4F0C94180EBB272A
S1131C30FB015527AA27880F991FAA1FA41710F084
S1131C40A41B83955051B9F7A05DAA3308F0A95D90
S1131C50A193009779F7B111B1931192CB010C9430
S1131C60310EDC01FC01672F71917723E1F7329784
S1131C7004C07C916D9370836291AE17BF07C8F363
S1091C800895F894FFCF63
S1131C86506C617965727320617265206576656E44
S1131C9620202020506C61796572203200000000FB
S1131CA620202020506C61796572203100000000EC
S1131CB6506C61796572313D00506C6179657232A0
S1131CC63D0020436F6E67726174756C6174696F51
S1131CD66E212100202020202020202020202020CA
S10D1CE62020200049444C45000072
S9030000FC
