:100000000C942A000C9447000C9447000C94470071
:100010000C9447000C9447000C9447000C94F30593
:100020000C9447000C9447000C9447000C94470034
:100030000C9447000C9447000C9447000C94470024
:100040000C9447000C9447000C9447000C94470014
:100050000C94470011241FBECFE5D8E0DEBFCDBF12
:1000600010E0A0E6B0E0E0E6FBE102C005900D92F2
:10007000A639B107D9F727E0A6E9B0E001C01D9283
:10008000A831B207E1F70E94EA010C94AE0D0C947E
:10009000000080919700909198000E94B40C80918C
:1000A0009D0090919E000E94B40C809199009091C7
:1000B0009A000E94B40C0E94620280919700909175
:1000C00098000E94390A80919D0090919E000E94A4
:1000D000390A8091990090919A000E94390A809182
:1000E0009B0090919C000E94B40CE5CFCF93DF93CE
:1000F00000D01F92CDB7DEB787E190E00E940804E0
:1001000060E084E00E94400790930F0780930E0701
:100110000E94B80A9A83898362E370E0CE01019657
:100120000E94FC0BBE016D5F7F4F80E00E94640364
:100130008B81813069F780910E0790910F070E94A3
:100140007A08843058F420E040E050E060E070E04D
:1001500080910E0790910F070E944C0787E190E075
:100160000E940804D5CFCF93DF9300D0CDB7DEB780
:1001700088E190E00E94080443E060E081E00E9492
:1001800013079093150780931407009739F020E028
:1001900040E050E060E070E00E944C0743E060E027
:1001A00081E00E9413079093130780931207009732
:1001B00039F020E040E050E060E070E00E944C0741
:1001C0000F2EF1E7EF2EF0E0FF2EF02D01E610E00C
:1001D0000E94B80A9A83898360E971E0CE01019692
:1001E0000E94FC0B60E070E080911407909115076D
:1001F0000E94ED07F7012081222381F080E090E04A
:1002000030E0FC01E155FF4F20833F5F832F90E0FA
:10021000FC01EF58FF4F20812111F3CF20E040E097
:1002200050E060E070E080911407909115070E9403
:100230004C0760E070E080911207909113070E94D4
:10024000ED07F8012081222381F080E090E030E08A
:10025000FC01E156FF4F20833F5F832F90E0FC01BC
:10026000EF59FF4F20812111F3CF20E040E050E013
:1002700060E070E080911207909113070E944C0794
:10028000A7CFCF93DF9300D0CDB7DEB701E00E94B8
:10029000B80A9A83898380910E0790910F070E9474
:1002A0007A08182F08C060E070E080910E079091E6
:1002B0000F070E94ED0780910E0790910F070E9493
:1002C0007A088111F0CF123010F1809160008130F6
:1002D000D9F51092600060E070E080911207909173
:1002E00013070E94ED074FE950E060E070E082E004
:1002F00090E00E94C30220E040E050E060E070E047
:1003000080911207909113070E944C071DC0009323
:10031000600060E070E080911207909113070E94E6
:10032000ED0741E850E060E070E082E090E00E947C
:10033000C30220E040E050E060E070E080911207EE
:10034000909113070E944C078091960081111EC066
:1003500060E070E080911407909115070E94ED070E
:100360004FEA50E060E070E081E090E00E94C3025C
:1003700020E040E050E060E070E080911407909150
:1003800015070E944C07009396001DC060E070E0C6
:1003900080911407909115070E94ED0741E850E005
:1003A00060E070E081E090E00E94C30220E040E065
:1003B00050E060E070E080911407909115070E9472
:1003C0004C071092960068EC70E0CE0101960E94F6
:1003D000FC0B5DCFEF92FF920F930F2EFBE9EF2EF8
:1003E000F0E0FF2EF02D01E020E030E044E650E0A8
:1003F00060E070E089E490E00E9425090F2EF9E9A1
:10040000EF2EF0E0FF2EF02D02E020E030E044E699
:1004100050E060E070E086E790E00E9425090F2E32
:10042000FDE9EF2EF0E0FF2EF02D01E020E030E0BE
:1004300044E650E060E070E083EB90E00E94250924
:100440000F2EF7E9EF2EF0E0FF2EF02D00E020E078
:1004500030E044E650E060E070E081E491E00E942A
:1004600025090E94880A80E090E00F91FF90EF90AC
:100470000895CF93C82FD998DA98DB9A82E090E05C
:100480000E943A0C8BB38F709C2F907F892B8BBB73
:10049000DB9882E090E00E943A0CDB9A82E090E0E8
:1004A0000E943A0C8BB3282F2F7030E1C39FC001FC
:1004B0001124822B8BBBDB9882E090E00E943A0CE7
:1004C000CF9108958AB38E608ABB8AB3806F8ABB4E
:1004D00082E00E94390288E20E9439028CE00E9488
:1004E000390281E00E9439020895CF93C82FD99A2A
:1004F000DA98DB9A81E090E00E943A0C8BB38F701F
:100500009C2F907F892B8BBBDB9881E090E00E9431
:100510003A0CDB9A81E090E00E943A0C8BB3282FD2
:100520002F7030E1C39FC0011124822B8BBBDB985D
:1005300081E090E00E943A0C80E0CF9108950F9303
:100540001F93CF93FC018081882359F08F01C0E075
:100550000E947502CF5FF801EC0FF11D80818111BF
:10056000F7CFCF911F910F910895813019F082300C
:1005700021F005C090E8960F02C090EC960F892FED
:100580000E9439020895CF93DF93EA010E94B502D9
:10059000CE010E949F02DF91CF910895803208F032
:1005A0008FC0982F97708695869586958F5B82343D
:1005B00051F118F4813441F085C0833409F442C00C
:1005C000843409F45EC07EC061110FC04AB321E0DB
:1005D00030E0B90102C0660F771F9A95E2F7CB01B0
:1005E000809584238ABB80E008954AB321E030E0FF
:1005F000B90102C0660F771F9A95E2F7CB01842BF1
:100600008ABB80E0089561110FC047B321E030E05C
:10061000B90102C0660F771F9A95E2F7CB0180956A
:10062000842387BB80E0089547B321E030E0B9011F
:1006300002C0660F771F9A95E2F7CB01842B87BB28
:1006400080E0089561110FC044B321E030E0B901AA
:1006500002C0660F771F9A95E2F7CB01809584233D
:1006600084BB80E0089544B321E030E0B90102C0CA
:10067000660F771F9A95E2F7CB01842B84BB80E04D
:10068000089561110FC041B321E030E0B90102C00B
:10069000660F771F9A95E2F7CB018095842381BB83
:1006A00080E0089541B321E030E0B90102C0660F57
:1006B000771F9A95E2F7CB01842B81BB80E00895E8
:1006C00081E0089581E00895803208F04DC0982FB0
:1006D00097708695869586958F5B8234C1F018F465
:1006E000813431F043C0833409F1843471F13EC068
:1006F00089B3282F30E0A90102C0559547959A95F6
:10070000E2F7CA018170FB01808380E0089586B31F
:10071000282F30E0A90102C0559547959A95E2F738
:10072000CA018170FB01808380E0089583B3282F84
:1007300030E0A90102C0559547959A95E2F7CA01A4
:100740008170FB01808380E0089580B3282F30E022
:10075000A90102C0559547959A95E2F7CA018170A3
:10076000FB01808380E0089581E0089581E0089591
:10077000803208F049C0982F9770869586958695A7
:100780008F5B8234B9F018F4813431F03FC0833488
:10079000F9F0843459F13AC04BB321E030E0B901AB
:1007A00002C0660F771F9A95E2F7CB0184278BBBB7
:1007B00080E0089548B321E030E0B90102C0660F3F
:1007C000771F9A95E2F7CB01842788BB80E00895D4
:1007D00045B321E030E0B90102C0660F771F9A955A
:1007E000E2F7CB01842785BB80E0089542B321E086
:1007F00030E0B90102C0660F771F9A95E2F7CB018E
:10080000842782BB80E0089581E0089581E0089507
:10081000CF93C82F61E00E94CE028C2F0E94B803B4
:10082000CF910895FC010396928381832FEF3FEFD0
:1008300034832383968385839087878310820895EA
:10084000FC01118610860895CF93DF939C01FB0174
:10085000DC011196CD91DC911297D383C2838C81F8
:100860009D81958384838C819D81DC0113967C938B
:100870006E9312977D836C8331872087F901808185
:100880008F5F8083DF91CF910895CF93DF93EB014A
:10089000488159814F3F2FEF520721F4FC01A78176
:1008A000B0850DC0DC01139601C0DF011296ED91F9
:1008B000FC9113972081318142175307B0F71296AC
:1008C000ED91FC911397FB83EA83D583C483BD83A9
:1008D000AC831396DC93CE93129799878887FC019B
:1008E00020812F5F2083DF91CF910895CF93DF93F5
:1008F000FC01A085B185C281D381848195819D83CE
:100900008C83C481D581828193819B838A83119654
:100910008D919C911297E817F90731F484819581A4
:1009200012969C938E931197118610868C9181500C
:100930008C938C91DF91CF91089531E1FC0130834C
:10094000319722E220833197A3E3A083319760831C
:100950003197708331971082319760E860833197C7
:100960001082319762E06083319763E06083319752
:1009700064E06083319765E06083319766E060836F
:10098000319767E06083319768E06083319769E071
:100990006083319760E1608331973083319732E132
:1009A0003083319733E13083319734E130833197AD
:1009B00035E13083319736E13083319737E1308349
:1009C000319738E13083319739E13083319730E224
:1009D0003083319731E2308331972083319723E29E
:1009E00020833197408331975083319726E22083CB
:1009F000319727E22083319728E22083319729E23B
:100A00002083319720E32083319721E32083869749
:100A100008951BBC8CE78ABD8BE08EBD89B78061D1
:100A200089BFA0910C07B0910D07CD91CDBFDD918D
:100A3000DEBFFF91EF91DF91CF91BF91AF919F9179
:100A40008F917F916F915F914F913F912F911F9166
:100A50000F91FF90EF90DF90CF90BF90AF909F905D
:100A60008F907F906F905F904F903F902F901F904E
:100A70000F900FBE0F90089581E008950F920FB66A
:100A8000F8940F921F9211242F923F924F925F92EF
:100A90006F927F928F929F92AF92BF92CF92DF928E
:100AA000EF92FF920F931F932F933F934F935F9378
:100AB0006F937F938F939F93AF93BF93CF93DF9366
:100AC000EF93FF93A0910C07B0910D070DB60D9217
:100AD0000EB60D920E944E0CA0910C07B0910D071E
:100AE000CD91CDBFDD91DEBFFF91EF91DF91CF9131
:100AF000BF91AF919F918F917F916F915F914F9136
:100B00003F912F911F910F91FF90EF90DF90CF9029
:100B1000BF90AF909F908F907F906F905F904F901D
:100B20003F902F901F900F900FBE0F9008950F923F
:100B30000FB6F8940F921F9211242F923F924F926A
:100B40005F926F927F928F929F92AF92BF92CF925D
:100B5000DF92EF92FF920F931F932F933F934F9348
:100B60005F936F937F938F939F93AF93BF93CF9335
:100B7000DF93EF93FF93A0910C07B0910D070DB693
:100B80000D920EB60D920E94C20A81110E944E0C67
:100B9000A0910C07B0910D07CD91CDBFDD91DEBFC7
:100BA000FF91EF91DF91CF91BF91AF919F918F9185
:100BB0007F916F915F914F913F912F911F910F9175
:100BC000FF90EF90DF90CF90BF90AF909F908F906D
:100BD0007F906F905F904F903F902F901F900F905D
:100BE0000FBE0F9008950E9497051895CF93DF933D
:100BF000EC010E94B20A8091BF009091C000892B45
:100C000031F484EC90E09093C0008093BF00209179
:100C1000C1003091C200C9018C0F9D1F8B3D45E082
:100C2000940770F42817390770F4C091BF00D09171
:100C3000C000C20FD31F9093C2008093C10005C0B3
:100C4000C0E0D0E002C0C0E0D0E00E947D0BCE0149
:100C5000DF91CF91089508950FB6F8940F92FC019B
:100C6000928D0F900FBE81E0911180E008950F9357
:100C70001F93CF93DF93EC01042F1A8D4C8D4423E7
:100C8000B9F1011116C050E08A819B810E94A50D27
:100C90002C8D8A819B81820F911D9B838A832C815D
:100CA0003D818217930720F1888199819B838A83F4
:100CB0001FC050E08E819F810E94A50D8C8D90E019
:100CC0009195819591092E813F81280F391F3F838E
:100CD0002E83488159812417350730F42C813D81BA
:100CE000820F931F9F838E83023011F411111150D4
:100CF0001F5F1A8F80E0DF91CF911F910F910895B0
:100D0000EF92FF920F931F93CF938C010FB6F8943D
:100D10000F92FC01C68D1C16ACF48189811106C0AE
:100D200011C0F8018189811105C00CC07801F1E181
:100D3000EF0EF11CC7010E94180D81110E94A10D38
:100D4000C15079F78FEFF801868F0F900FBE0FB665
:100D5000F8940F92C58D1C16ACF48085811106C0E5
:100D600011C0F8018085811105C00CC07801F8E040
:100D7000EF0EF11CC7010E94180D81110E94A10DF8
:100D8000C15079F78FEFF801858F0F900FBECF918B
:100D90001F910F91FF90EF900895CF93DF93EC0197
:100DA0000FB6F8940F92E881F9818B8D2C8D90E02D
:100DB00030E0829FA001839F500D929F500D11241F
:100DC0004E0F5F1F5D834C831A8EFB83EA8301976E
:100DD000829FA001839F500D929F500D1124CF013F
:100DE000840F951F9F838E838FEF8D8F8E8F611160
:100DF0000CC08885882389F0CE0108960E94180DC2
:100E0000882359F00E943E0508C0CE0108960E9432
:100E10001204CE0141960E9412040F900FBE81E091
:100E2000DF91CF9108950F931F93CF93DF93082FF6
:100E3000162F6623C1F0869FC00111244F960E9491
:100E4000F605EC01009741F415C00B8F1C8F61E093
:100E5000CE010E94CD060EC04F9699838883F5CFB0
:100E6000D983C883F2CF8FE190E00E94F605EC01B0
:100E7000892BB1F7CE01DF91CF911F910F9108958A
:100E8000CF93C62F42E060E00E941307009711F055
:100E9000FC01C28FCF9108959F92AF92BF92CF92E3
:100EA000DF92EF92FF920F931F93CF93DF9300D0C7
:100EB00000D01F92CDB7DEB78C016B015D834C83F0
:100EC000A22EB12C992493947C0188E0E80EF11CA9
:100ED0000FB6F8940F92F801928D838D981718F041
:100EE000F2E0AF1219C04A2DB601C8010E943706C0
:100EF000F8019189992349F0C80141960E94180D83
:100F0000882331F00E943E0503C081110E943E05F6
:100F10000F900FBE81E050C08C819D81892B21F400
:100F20000F900FBE80E048C0B11005C0CE01019601
:100F30000E94600DB92C0F900FBE0E94B20A0FB62E
:100F4000F8940F92F801858D8F3F09F4158EF80102
:100F5000868D8F3F09F4168E0F900FBEBE016C5F19
:100F60007F4FCE0101960E946B0D81111FC00FB6FD
:100F7000F8940F92F801928D0F900FBE838D981305
:100F80000FC06C817D81C7010E94060DC8010E94BF
:100F900080060E947D0B81119BCF0E943E0598CF59
:100FA000C8010E9480060E947D0B92CFC8010E945A
:100FB00080060E947D0B80E00F900F900F900F90A5
:100FC0000F90DF91CF911F910F91FF90EF90DF90E5
:100FD000CF90BF90AF909F900895CF92DF92EF9205
:100FE000FF920F931F93CF93DF9300D000D01F92F7
:100FF000CDB7DEB78C017D836C83D12CCC24C39418
:101000007C0181E1E80EF11C0FB6F8940F92F80113
:10101000828D882381F08150828F8085882339F0EA
:10102000C80108960E94180D81110E943E050F907C
:101030000FBE81E051C08C819D81892B21F40F90DE
:101040000FBE80E049C0D11005C0CE0101960E94BC
:10105000600DDC2C0F900FBE0E94B20A0FB6F89400
:101060000F92F801858D8F3F09F4158EF801868D5A
:101070008F3F09F4168E0F900FBEBE016C5F7F4F3D
:10108000CE0101960E946B0D81111AC0C8010E9409
:101090002C06882379F06C817D81C7010E94060DA2
:1010A000C8010E9480060E947D0B8111ADCF0E9475
:1010B0003E05AACFC8010E9480060E947D0BA4CFE6
:1010C000C8010E9480060E947D0BC8010E942C0668
:1010D000882309F499CF80E00F900F900F900F9024
:1010E0000F90DF91CF911F910F91FF90EF90DF90C4
:1010F000CF9008950FB6F8940F92FC01828D0F9057
:101100000FBE0895E091CB06F091CC06808181114D
:1011100007C08FEF9FEF9093A3068093A2060895D8
:10112000E091CB06F091CC060580F681E02D06809B
:10113000F781E02D828193819093A3068093A2068C
:10114000089507EB16E08091B6068823E1F30FB609
:10115000F8940F92D8011596ED91FC911697C681DF
:10116000D781CE0102960E9476048091AC06815010
:101170008093AC068091B60681508093B6060F909E
:101180000FBE8F89988D0E942B06CE010E942B06E0
:101190008091B6068111DBCFD6CFFF920F931F93BC
:1011A000CF93DF93EC01F62E0091AA061091AB06C7
:1011B00080910C0790910D0702960E947604CF3F14
:1011C0008FEFD80769F4FF2059F060910C077091F8
:1011D0000D076E5F7F4F8DEA96E00E9424042FC0BA
:1011E000C00FD11FE0910C07F0910D07D383C2838C
:1011F000C017D10768F460910C0770910D078091BA
:10120000C9069091CA066E5F7F4F0E94450417C0C1
:1012100060910C0770910D078091CB069091CC06E0
:101220006E5F7F4F0E9445048091A2069091A306B5
:10123000C817D90720F4D093A306C093A206DF9164
:10124000CF911F910F91FF9008954F925F926F92EF
:101250007F928F929F92AF92BF92CF92DF92EF9246
:10126000FF920F931F93CF93DF934C016B015A01B1
:101270002901CA010E94F6053C01892B09F4E7C047
:1012800086E290E00E94F605EC01892B59F0788EF9
:101290006F8A81E0A81AB108A60CB71CC114D1044A
:1012A00029F420C0C3010E942B06D1C0D6018C9125
:1012B000898F8C918823A1F0AE01465E5F4FF601C5
:1012C0003196B8E0CB0ED11CCF012191DA012D93DC
:1012D000AD01DC018C91882319F0CE16DF06A1F751
:1012E00018A201C0198E053008F004E00E8B6E01C3
:1012F000B2E0CB0ED11CC6010E942004CE010C9698
:101300000E942004D987C88785E090E0801B91095E
:101310009D878C87DB8BCA8B19A21AA21BA21CA2E9
:101320001DA2A201B401C5010E949D049983888376
:10133000E114F10419F0F701D183C0830FB6F894DA
:101340000F928091AC068F5F8093AC0680910C0762
:1013500090910D07892BD1F5D0930D07C0930C0701
:101360008091AC06813009F041C00FED16E00F2EE0
:10137000FCE0EF2EF7E0FF2EF02DC8010E941204D2
:10138000075F1F4F0E151F05C1F786ED96E00E94FF
:1013900012048DEC96E00E94120480EC96E00E940C
:1013A000120487EB96E00E9412048DEA96E00E94F8
:1013B000120486ED96E09093CC068093CB068DECDC
:1013C00096E09093CA068093C90610C08091A80643
:1013D00081110CC0E0910C07F0910D0796898E8960
:1013E000891720F0D0930D07C0930C078091A406B5
:1013F0008F5F8093A4068E899091A906981710F4A8
:101400008093A90690E09C01220F331F220F331F07
:10141000220F331F820F931FB6018152994F0E94F2
:1014200024040F900FBE8091A806882361F0E091FC
:101430000C07F0910D0796898E89981730F40E9459
:101440003E0581E005C081E003C081E001C08FEF6F
:10145000DF91CF911F910F91FF90EF90DF90CF9090
:10146000BF90AF909F908F907F906F905F904F90C4
:1014700008950F931F93CF93DF9320910C07309122
:101480000D078217930709F43EC0009709F43BC08B
:101490000FB6F8940F92FC01228533852D5A364001
:1014A00081F5FC0124893589F6E0203C3F0749F1AC
:1014B000232B39F5EC018C010E5F1F4FC8010E94F0
:1014C00076048E899091A906981710F48093A90646
:1014D00090E09C01220F331F220F331F220F331F76
:1014E000820F931FB8018152994F0E942404E0910A
:1014F0000C07F0910D079E898689981710F00E94BD
:101500003E050F900FBEDF91CF911F910F9108956F
:10151000EF92FF920F930F2EF0EAEF2EF6E0FF2EE0
:10152000F02D00E020E030E045E550E061E970E0BA
:1015300081EA98E00E942509813081F4F8948FEFC8
:101540009FEF9093A3068093A20681E08093A80664
:101550001092AB061092AA060E9409050F91FF9007
:10156000EF90089580919F068F5F80939F06089566
:101570000FB6F8940F928091AA069091AB060F9047
:101580000FBE0895CF92DF92EF92FF920F931F93B9
:10159000CF93DF9380919F06811199C0E090AA06B6
:1015A000F090AB068FEFE81AF80AF092AB06E092E3
:1015B000AA06E114F104B9F48091CB069091CC060F
:1015C0002091C9063091CA063093CC062093CB06F1
:1015D0009093CA068093C9068091A5068F5F809379
:1015E000A5060E9482088091A2069091A306E816A3
:1015F000F90610F4D12C53C0D12CCC24C394E09123
:10160000CB06F091CC068081811107C08FEF9FEF50
:101610009093A3068093A20642C0E091CB06F0917E
:10162000CC060580F681E02DC681D7818A819B8119
:10163000E816F90628F49093A3068093A2062FC01B
:101640008E010E5F1F4FC8010E9476048C899D8910
:10165000892B21F0CE010C960E9476048E89909100
:10166000A906981710F48093A90690E09C01220F18
:10167000331F220F331F220F331F820F931FB80116
:101680008152994F0E942404E0910C07F0910D07BC
:101690009E898689981708F4B2CFDC2CB0CFE091F0
:1016A0000C07F0910D07868990E0FC01EE0FFF1FFB
:1016B000EE0FFF1FEE0FFF1F8E0F9F1FFC01E15269
:1016C000F94F8081823048F0DD24D39406C08091A8
:1016D000A7068F5F8093A706D12C8091A60688234A
:1016E00011F0DD24D3948D2DDF91CF911F910F91B7
:1016F000FF90EF90DF90CF900895DF92EF92FF92EE
:101700000F931F93CF93DF930FB6F8940F928091AE
:101710009F06815080939F0680919F0681115FC034
:101720008091AC06811133C05DC0D7011596ED9153
:10173000FC911697C681D781CE010C960E94760443
:101740008E010E5F1F4FC8010E9476048E89909112
:10175000A906981710F48093A90690E09C01220F27
:10176000331F220F331F220F331F820F931FB80125
:101770008152994F0E942404E0910C07F0910D07CB
:101780009E898689981768F0D092A6060AC0C0E0A4
:10179000D0E00F2EF0ECEF2EF6E0FF2EF02DDD2442
:1017A000D394F70180818111C0CFCD2B11F00E941D
:1017B0008208C091A706CC2351F0D1E00E94C20A52
:1017C0008111D093A606C150C9F71092A706809147
:1017D000A606882331F00E943E0581E003C080E028
:1017E00001C080E00F900FBEDF91CF911F910F914C
:1017F000FF90EF90DF9008950F931F93CF93DF93A7
:101800008C01EB010E94B20A4091AA065091AB06EE
:10181000F80120813181C9018C0F9D1F42175307A8
:1018200048F482179307E8F4918380834817590797
:1018300068F407C08217930780F04817590768F0CB
:1018400010C060E0841B950B0E94CD080E947D0BA8
:1018500081110BC00E943E0508C0F801918380836E
:10186000F0CFF80191838083F1CFDF91CF911F9169
:101870000F910895CF93DF93EC01892B51F00E94D3
:10188000B20A60E0CE010E94CD080E947D0B81115A
:1018900002C00E943E05DF91CF91089580919F067E
:1018A000882321F081E08093A60608951092A60671
:1018B0002091A906822F90E0FC01EE0FFF1FEE0F92
:1018C000FF1FEE0FFF1FE80FF91FE152F94F3081A4
:1018D000311111C02150822F90E0FC01EE0FFF1F4B
:1018E000EE0FFF1FEE0FFF1FE80FF91FE152F94F38
:1018F0003081332379F3AC01440F551F440F551F3A
:10190000440F551F480F591FDA01A152B94F1196C4
:10191000ED91FC9112970280F381E02D1296FC93D9
:10192000EE9311974E51594FE417F50729F4428170
:101930005381FD0152834183FC01EE0FFF1FEE0F27
:10194000FF1FEE0FFF1F8E0F9F1FFC01E152F94F8B
:101950000180F281E02D8681978190930D0780931D
:101960000C072093A90608950F931F93CF93DF933D
:10197000EC010FB6F8940F92892B21F4C0910C075B
:10198000D0910D078E010E5F1F4FC8010E94760493
:101990008C899D89892B21F0CE010C960E947604BA
:1019A000B8018DEA96E00E9424048DA1813009F4EB
:1019B0001DA20F900FBE8091A806882339F00FB6A4
:1019C000F8940F920E9482080F900FBE80910C072E
:1019D00090910D07C817D907A1F48091A806882314
:1019E00019F00E943E050DC09091AD068091AC06A5
:1019F000981305C010920D0710920C0702C00E94A8
:101A00004E0CDF91CF911F910F910895CF93DF93EB
:101A1000EB0160910C0770910D07645F7F4F0E948E
:101A2000450461E0CE010E94CD08DF91CF91089579
:101A30000F931F93CF93DF93DC011596ED91FC91EB
:101A40001697C681D7818E01045F1F4FC8010E947F
:101A5000760480919F0681111CC00A501109C801AB
:101A60000E9476048E899091A906981710F48093AD
:101A7000A90690E09C01220F331F220F331F220F73
:101A8000331F820F931FB8018152994F0E94240483
:101A900005C0B80180EC96E00E942404E0910C0798
:101AA000F0910D079E898689891720F481E0809343
:101AB000A60601C080E0DF91CF911F910F9108959C
:101AC0002091A506FC0120832091AA063091AB0647
:101AD000328321830895CF93DF930FB6F8940F924A
:101AE0002091AA063091AB06DB014D915C914F3FEE
:101AF000BFEF5B07F1F0EC01E981FA81A091A50647
:101B0000B881BA1719F02E173F07A8F42E1B3F0B08
:101B10002417350748F4FB01421B530B51834083C4
:101B20000E94600D80E008C0FB011182108281E0FC
:101B300003C080E001C081E00F900FBEDF91CF9124
:101B4000089581E08093A6060895FB01DC0102C0A0
:101B500001900D9241505040D8F70895F894FFCF6E
:101B6000016F7665727772697474656E2121000069
:101B70000048656C6C6F204C43442121000000003C
:101B80000020202020202020202020202020202075
:061B90000049444C450031
:00000001FF
