:100000000C942A000C9447000C9447000C94470071
:100010000C9447000C9447000C9447000C94700813
:100020000C9447000C9447000C9447000C94470034
:100030000C9447000C9497050C9447000C94C4054D
:100040000C9447000C9447000C9447000C94470014
:100050000C94470011241FBECFE5D8E0DEBFCDBF12
:1000600010E0A0E6B0E0E8E3F3E202C005900D92F4
:10007000A238B107D9F726E0A2E8B0E001C01D928E
:10008000AE3EB207E1F70E942A020C949A110C943A
:10009000000080918700909188000E94310F80912C
:1000A000890090918A000E94310F80918500909183
:1000B00086000E94310F80918300909184000E94FD
:1000C000310F0E94B20287E690E00E94490360E08F
:1000D00088E00E945D0485E790E00E94F105809130
:1000E0008700909188000E94B60C809189009091C1
:1000F0008A000E94B60C80918300909184000E9437
:10010000B60C80918500909186000E94B60C80917B
:100110008B0090918C000E94310FD3CFCF93DF934F
:1001200000D01F92CDB7DEB760E084E00E94BD0929
:100130009093EB068093EA060E94350D9A8389839B
:100140008BE190E00E948506BE016D5F7F4F88E0E5
:100150000E94F3048B81813099F48091EA0690919A
:10016000EB060E94F70A843058F420E040E050E0AB
:1001700060E070E08091EA069091EB060E94C90968
:100180008BE190E00E94850662E370E0CE0101966B
:100190000E94790ED1CFCF93DF9300D0CDB7DEB7D9
:1001A00043E060E081E00E9490099093E90680932B
:1001B000E806009739F020E040E050E060E070E0B1
:1001C0000E94C90943E060E081E00E949009909399
:1001D000ED068093EC06009739F020E040E050E017
:1001E00060E070E00E94C9090E94350D9A838983FE
:1001F0008CE190E00E94850660E070E08091E80666
:100200009091E9060E946A0A84E690E00E945406F2
:10021000893041F060E070E08091EC069091ED064D
:100220000E946A0A20E040E050E060E070E08091C7
:10023000E8069091E9060E94C9098CE190E00E94CD
:10024000850668EC70E0CE0101960E94790ECCCF55
:10025000CF93DF9300D0CDB7DEB743E060E081E01D
:100260000E9490099093E7068093E606009739F084
:1002700020E040E050E060E070E00E94C9090E9488
:10028000350D9A8389838DE190E00E94850660E0B8
:1002900070E08091E6069091E7060E946A0A82E685
:1002A00090E00E94E003609162007091630080E042
:1002B00090E00E94C31021ED32E243E050E40E943E
:1002C00022100E949410709363006093620020E0FB
:1002D00040E050E060E070E08091E6069091E70633
:1002E0000E94C9098DE190E00E94850668EC70E0EB
:1002F000CE0101960E94790EC2CFCF93DF9300D03A
:10030000CDB7DEB7EE24E39401E010E00E94350D96
:100310009A8389838EE190E00E9485068091EA06A7
:100320009091EB060E94F70AF82E08C060E070E09A
:100330008091EA069091EB060E946A0A8091EA0693
:100340009091EB060E94F70A8111F0CF81E08F15A2
:1003500068F480918200811106C0109361000093BF
:1003600060000E940503E092820002C010928200A9
:100370008091EC069091ED060E94F70A811144C02D
:1003800020E040E050E060E070E08091EC06909169
:10039000ED060E94C90960E070E08091E806909146
:1003A000E9060E946A0A80916000909161000197BD
:1003B00011F40E940503609160007091610082E079
:1003C00090E00E9409038091640090E00E94C502C1
:1003D00080916000909161008031910529F4109323
:1003E00061000093600005C00196909361008093C6
:1003F000600020E040E050E060E070E08091E806BE
:100400009091E9060E94C90960E070E08091E606DB
:100410009091E7060E946A0AA801B80180916200E3
:10042000909163000E94220320E040E050E060E0F1
:1004300070E08091E6069091E7060E94C9098EE17E
:1004400090E00E94850668EC70E0CE0101960E9463
:10045000790E5CCFEF92FF920F930F2EFBE8EF2EF9
:10046000F0E0FF2EF02D04E020E030E044E650E024
:1004700060E070E089E490E00E94A20B0F2EF9E8A2
:10048000EF2EF0E0FF2EF02D03E020E030E044E618
:1004900050E060E070E08EE890E00E94A20B0F2E2A
:1004A000F7E8EF2EF0E0FF2EF02D02E020E030E044
:1004B00044E650E060E070E08BEC90E00E94A20B1C
:1004C0000F2EF3E8EF2EF0E0FF2EF02D20E030E0CD
:1004D00044E650E060E070E088E291E00E94A20B08
:1004E0000F2EF5E8EF2EF0E0FF2EF02D01E020E0DA
:1004F00030E044E650E060E070E08DE791E00E947B
:10050000A20B0E94050D80E090E00F91FF90EF900C
:100510000895CF93C82FD998DA98DB9A82E090E0BB
:100520000E94B70E8BB38F709C2F907F892B8BBB53
:10053000DB9882E090E00E94B70EDB9A82E090E0C8
:100540000E94B70E8BB3282F2F7030E1C39FC001DC
:100550001124822B8BBBDB9882E090E00E94B70EC7
:10056000CF9108958AB38E608ABB8AB3806F8ABBAD
:1005700082E00E94890288E20E9489028CE00E9447
:10058000890281E00E9489020895CF93C82FD99AE9
:10059000DA98DB9A81E090E00E94B70E8BB38F70FF
:1005A0009C2F907F892B8BBBDB9881E090E00E9491
:1005B000B70EDB9A81E090E00E94B70E8BB3282F34
:1005C0002F7030E1C39FC0011124822B8BBBDB98BD
:1005D00081E090E00E94B70E80E0CF9108950F93E4
:1005E0001F93CF93FC018081882359F08F01C0E0D5
:1005F0000E94C502CF5FF801EC0FF11D80818111CF
:10060000F7CFCF911F910F91089581E00E94890249
:100610000895813019F0823021F005C09FE7960FD0
:1006200002C09FEB960F892F0E9489020895CF93F5
:10063000DF93EA010E940903CE010E94EF02DF91DD
:10064000CF9108950F931F93CF93DF93CDB7DEB76C
:10065000A8970FB6F894DEBF0FBECDBF162F042F9C
:100660004AE050E0BE016F5F7F4F0E945A11AE0119
:100670004F5F5F4F602F812F0E941703A8960FB620
:10068000F894DEBF0FBECDBFDF91CF911F910F91C8
:100690000895CF93DF93FC01892B09F489C0379823
:1006A000379A808191818830910520F081E0809394
:1006B0008F0008C096B18095892386B997B1808153
:1006C000892B87B982819381813C910520F082E05A
:1006D00080938F0008C096B18095892386B997B121
:1006E0008281892B87B984819581079720F083E0E7
:1006F00080938F0007C086B1887F86B996B18481C8
:10070000892B86B9868197818531910519F43598B1
:10071000359A05C0469719F085E080938F00808553
:100720009185823E910520F086E080938F000BC07A
:10073000813E910541F090B78095892380BF90B7A5
:100740008085892B80BF828593858032910531F425
:100750003D983D9A80E280938D0009C0819721F4F5
:1007600081E280938D0003C087E080938F008485B1
:1007700095859C01225231092430310520F08AE010
:1007800080938F0018C08232910519F0853291054F
:1007900031F480938E008FB780688FBF0CC0EF015B
:1007A00080E190E00E9485068C8580938E0003C0D6
:1007B00089E080938F0080918F00DF91CF91089521
:1007C000FC0190918F00911172C090918E00933234
:1007D000E9F4369A349BFECF80918D00803279F413
:1007E00085B124B190E0880F991F880F991F229539
:1007F000269526952370822B918380835BC084B1DC
:1008000025B190E0922B9183808354C0943241F1C2
:1008100080916500882329F081E080936500369AF5
:1008200049C010926500349B45C080918D00803294
:1008300079F485B124B190E0880F991F880F991F32
:100840002295269526952370822B9183808306C05E
:1008500084B125B190E0922B91838083369A2AC08F
:1008600080916500882321F010926500369A22C09D
:1008700010926500349B1EC080918D00803279F407
:1008800085B124B190E0880F991F880F991F229598
:10089000269526952370822B9183808306C084B190
:1008A00025B190E0922B91838083369A03C08FE12B
:1008B00080936600809166000895803208F08FC0B2
:1008C000982F97708695869586958F5B823451F127
:1008D00018F4813441F085C0833409F442C0843473
:1008E00009F45EC07EC061110FC04AB321E030E060
:1008F000B90102C0660F771F9A95E2F7CB01809588
:1009000084238ABB80E008954AB321E030E0B90136
:1009100002C0660F771F9A95E2F7CB01842B8ABB42
:1009200080E0089561110FC047B321E030E0B901C4
:1009300002C0660F771F9A95E2F7CB01809584235A
:1009400087BB80E0089547B321E030E0B90102C0E1
:10095000660F771F9A95E2F7CB01842B87BB80E067
:10096000089561110FC044B321E030E0B90102C025
:10097000660F771F9A95E2F7CB018095842384BB9D
:1009800080E0089544B321E030E0B90102C0660F71
:10099000771F9A95E2F7CB01842B84BB80E0089502
:1009A00061110FC041B321E030E0B90102C0660F10
:1009B000771F9A95E2F7CB018095842381BB80E075
:1009C000089541B321E030E0B90102C0660F771FFE
:1009D0009A95E2F7CB01842B81BB80E0089581E0FA
:1009E000089581E00895803208F04DC0982F9770E7
:1009F0008695869586958F5B8234C1F018F4813494
:100A000031F043C0833409F1843471F13EC089B3BD
:100A1000282F30E0A90102C0559547959A95E2F735
:100A2000CA018170FB01808380E0089586B3282F7E
:100A300030E0A90102C0559547959A95E2F7CA01A1
:100A40008170FB01808380E0089583B3282F30E01C
:100A5000A90102C0559547959A95E2F7CA018170A0
:100A6000FB01808380E0089580B3282F30E0A90146
:100A700002C0559547959A95E2F7CA018170FB012E
:100A8000808380E0089581E0089581E008958032B8
:100A900008F049C0982F97708695869586958F5B4C
:100AA0008234B9F018F4813431F03FC08334F9F066
:100AB000843459F13AC04BB321E030E0B90102C0AF
:100AC000660F771F9A95E2F7CB0184278BBB80E0F6
:100AD000089548B321E030E0B90102C0660F771FE6
:100AE0009A95E2F7CB01842788BB80E0089545B34F
:100AF00021E030E0B90102C0660F771F9A95E2F756
:100B0000CB01842785BB80E0089542B321E030E02B
:100B1000B90102C0660F771F9A95E2F7CB018427CF
:100B200082BB80E0089581E0089581E008951F92DE
:100B30000F920FB60F9211242F933F934F935F9311
:100B40006F937F938F939F93AF93BF93EF93FF9395
:100B50008091930090919400892B29F0E09193006B
:100B6000F09194000995FF91EF91BF91AF919F9102
:100B70008F917F916F915F914F913F912F910F9046
:100B80000FBE0F901F9018951F920F920FB60F92E5
:100B900011242F933F934F935F936F937F938F9382
:100BA0009F93AF93BF93EF93FF93809195009091A4
:100BB0009600892B29F0E0919500F0919600099517
:100BC000FF91EF91BF91AF919F918F917F916F9125
:100BD0005F914F913F912F910F900FBE0F901F90FB
:100BE0001895FC01892B09F45CC010BC828189B97D
:100BF00080818D3019F480939000539A81818E30DA
:100C000019F480939100549A8381811103C080B5B7
:100C100080BD0BC0813021F480B5806280BD05C0ED
:100C2000823019F480B5806380BD8381843021F4E3
:100C300080B5886080BD04C0833011F480B580BD6C
:100C40008581853019F480B580BD17C0863021F4C8
:100C500080B5826080BD11C0873021F480B584608A
:100C600080BD0BC0883021F480B5866080BD05C092
:100C7000893019F480B5866080BD86818A3071F430
:100C8000809392008FB780688FBF81818E3009F486
:100C9000579A80818D3039F4569A05C0809392001E
:100CA00002C08CE008950895CF93DF9300D0CDB7B4
:100CB000DEB79A838983809191008E3009F5809107
:100CC00092008C3039F45F9BFECFE981FA818CB1C0
:100CD000808316C08A3029F4E981FA818CB180833F
:100CE0000FC08B3069F45F9B05C0E981FA818CB13C
:100CF000808306C082E190E00E94850689E000C002
:100D00000F900F90DF91CF910895CF93C82F61E09E
:100D10000E945D048C2F0E944705CF910895FC012D
:100D20000396928381832FEF3FEF3483238396834F
:100D300085839087878310820895FC011186108631
:100D40000895CF93DF939C01FB01DC011196CD91B7
:100D5000DC911297D383C2838C819D819583848398
:100D60008C819D81DC0113967C936E9312977D8319
:100D70006C8331872087F90180818F5F8083DF91C9
:100D8000CF910895CF93DF93EB01488159814F3F75
:100D90002FEF520721F4FC01A781B0850DC0DC01C3
:100DA000139601C0DF011296ED91FC9113972081FB
:100DB000318142175307B0F71296ED91FC911397CA
:100DC000FB83EA83D583C483BD83AC831396DC9312
:100DD000CE93129799878887FC0120812F5F20830B
:100DE000DF91CF910895CF93DF93FC01A085B1856A
:100DF000C281D381848195819D838C83C481D58177
:100E0000828193819B838A8311968D919C91129705
:100E1000E817F90731F48481958112969C938E939B
:100E20001197118610868C9181508C938C91DF9153
:100E3000CF91089531E1FC013083319722E2208384
:100E40003197A3E3A0833197608331977083319703
:100E50001082319760E8608331971082319762E0A9
:100E60006083319763E06083319764E060833197FA
:100E700065E06083319766E06083319767E0608367
:100E8000319768E06083319769E06083319760E172
:100E9000608331973083319732E13083319733E18A
:100EA0003083319734E13083319735E130833197A6
:100EB00036E13083319737E13083319738E1308341
:100EC000319739E13083319730E23083319731E225
:100ED000308331972083319723E2208331974083F9
:100EE00031975083319726E22083319727E2208380
:100EF000319728E22083319729E22083319720E33C
:100F00002083319721E32083869708951BBC8CE7CB
:100F10008ABD8BE08EBD89B7806189BFA091E40650
:100F2000B091E506CD91CDBFDD91DEBFFF91EF9190
:100F3000DF91CF91BF91AF919F918F917F916F91F1
:100F40005F914F913F912F911F910F91FF90EF90E3
:100F5000DF90CF90BF90AF909F908F907F906F90D9
:100F60005F904F903F902F901F900F900FBE0F906B
:100F7000089581E008950F920FB6F8940F921F9292
:100F800011242F923F924F925F926F927F928F9295
:100F90009F92AF92BF92CF92DF92EF92FF920F9308
:100FA0001F932F933F934F935F936F937F938F93F1
:100FB0009F93AF93BF93CF93DF93EF93FF93A09152
:100FC000E406B091E5060DB60D920EB60D920E94A4
:100FD000CB0EA091E406B091E506CD91CDBFDD9199
:100FE000DEBFFF91EF91DF91CF91BF91AF919F91C4
:100FF0008F917F916F915F914F913F912F911F91B1
:101000000F91FF90EF90DF90CF90BF90AF909F90A7
:101010008F907F906F905F904F903F902F901F9098
:101020000F900FBE0F9008950F920FB6F8940F9285
:101030001F9211242F923F924F925F926F927F9254
:101040008F929F92AF92BF92CF92DF92EF92FF92D8
:101050000F931F932F933F934F935F936F937F93C0
:101060008F939F93AF93BF93CF93DF93EF93FF93B0
:10107000A091E406B091E5060DB60D920EB60D9264
:101080000E943F0D81110E94CB0EA091E406B09109
:10109000E506CD91CDBFDD91DEBFFF91EF91DF91F0
:1010A000CF91BF91AF919F918F917F916F915F9100
:1010B0004F913F912F911F910F91FF90EF90DF90F3
:1010C000CF90BF90AF909F908F907F906F905F90E8
:1010D0004F903F902F901F900F900FBE0F9008954C
:1010E0000E9414081895CF93DF93EC010E942F0DF6
:1010F0008091970090919800892B31F48CE990E0D1
:1011000090939800809397002091990030919A00D5
:10111000C9018C0F9D1F8B3D45E0940770F4281783
:10112000390770F4C0919700D0919800C20FD31F77
:1011300090939A008093990005C0C0E0D0E002C06F
:10114000C0E0D0E00E94FA0DCE01DF91CF9108956A
:1011500008950FB6F8940F92FC01928D0F900FBE78
:1011600081E0911180E008950F931F93CF93DF9357
:10117000EC01042F1A8D4C8D4423B9F1011116C0D6
:1011800050E08A819B810E9451112C8D8A819B8124
:10119000820F911D9B838A832C813D818217930747
:1011A00020F1888199819B838A831FC050E08E81C2
:1011B0009F810E9451118C8D90E0919581959109AC
:1011C0002E813F81280F391F3F832E83488159810B
:1011D0002417350730F42C813D81820F931F9F83A4
:1011E0008E83023011F4111111501F5F1A8F80E0AD
:1011F000DF91CF911F910F910895EF92FF920F937E
:101200001F93CF938C010FB6F8940F92FC01C68DFB
:101210001C16ACF48189811106C011C0F8018189C6
:10122000811105C00CC07801F1E1EF0EF11CC7017E
:101230000E94950F81110E941E10C15079F78FEF07
:10124000F801868F0F900FBE0FB6F8940F92C58DE0
:101250001C16ACF48085811106C011C0F801808590
:10126000811105C00CC07801F8E0EF0EF11CC70138
:101270000E94950F81110E941E10C15079F78FEFC7
:10128000F801858F0F900FBECF911F910F91FF90A6
:10129000EF900895CF93DF93EC010FB6F8940F927F
:1012A000E881F9818B8D2C8D90E030E0829FA00148
:1012B000839F500D929F500D11244E0F5F1F5D8331
:1012C0004C831A8EFB83EA830197829FA001839F40
:1012D000500D929F500D1124CF01840F951F9F83B5
:1012E0008E838FEF8D8F8E8F61110CC08885882340
:1012F00089F0CE0108960E94950F882359F00E942C
:10130000BB0708C0CE0108960E948F06CE01419609
:101310000E948F060F900FBE81E0DF91CF9108955C
:101320000F931F93CF93DF93082F162F6623C1F0DF
:10133000869FC00111244F960E947308EC0100970C
:1013400041F415C00B8F1C8F61E0CE010E944A0949
:101350000EC04F9699838883F5CFD983C883F2CF87
:101360008FE190E00E947308EC01892BB1F7CE0168
:10137000DF91CF911F910F910895CF93C62F42E037
:1013800060E00E949009009711F0FC01C28FCF919C
:1013900008959F92AF92BF92CF92DF92EF92FF9209
:1013A0000F931F93CF93DF9300D000D01F92CDB740
:1013B000DEB78C016B015D834C83A22EB12C992486
:1013C00093947C0188E0E80EF11C0FB6F8940F921C
:1013D000F801928D838D981718F0F2E0AF1219C0C2
:1013E0004A2DB601C8010E94B408F80191899923D9
:1013F00049F0C80141960E94950F882331F00E9460
:10140000BB0703C081110E94BB070F900FBE81E094
:1014100050C08C819D81892B21F40F900FBE80E0FC
:1014200048C0B11005C0CE0101960E94DD0FB92C55
:101430000F900FBE0E942F0D0FB6F8940F92F80177
:10144000858D8F3F09F4158EF801868D8F3F09F445
:10145000168E0F900FBEBE016C5F7F4FCE010196BE
:101460000E94E80F81111FC00FB6F8940F92F80187
:10147000928D0F900FBE838D98130FC06C817D816C
:10148000C7010E94830FC8010E94FD080E94FA0D47
:1014900081119BCF0E94BB0798CFC8010E94FD0815
:1014A0000E94FA0D92CFC8010E94FD080E94FA0D19
:1014B00080E00F900F900F900F900F90DF91CF91E1
:1014C0001F910F91FF90EF90DF90CF90BF90AF9062
:1014D0009F900895CF92DF92EF92FF920F931F9308
:1014E000CF93DF9300D000D01F92CDB7DEB78C0131
:1014F0007D836C83D12CCC24C3947C0181E1E80EE4
:10150000F11C0FB6F8940F92F801828D882381F0B8
:101510008150828F8085882339F0C80108960E9407
:10152000950F81110E94BB070F900FBE81E051C043
:101530008C819D81892B21F40F900FBE80E049C0E2
:10154000D11005C0CE0101960E94DD0FDC2C0F905A
:101550000FBE0E942F0D0FB6F8940F92F801858DE3
:101560008F3F09F4158EF801868D8F3F09F4168E92
:101570000F900FBEBE016C5F7F4FCE0101960E949F
:10158000E80F81111AC0C8010E94A908882379F0C8
:101590006C817D81C7010E94830FC8010E94FD08F4
:1015A0000E94FA0D8111ADCF0E94BB07AACFC801DE
:1015B0000E94FD080E94FA0DA4CFC8010E94FD08F8
:1015C0000E94FA0DC8010E94A908882309F499CF46
:1015D00080E00F900F900F900F900F90DF91CF91C0
:1015E0001F910F91FF90EF90DF90CF9008950FB66D
:1015F000F8940F92FC01828D0F900FBE0895E09138
:10160000A306F091A4068081811107C08FEF9FEFA0
:1016100090937B0680937A060895E091A306F0915B
:10162000A4060580F681E02D0680F781E02D8281F9
:10163000938190937B0680937A0608950FE816E0D5
:1016400080918E068823E1F30FB6F8940F92D801AB
:101650001596ED91FC911697C681D781CE01029621
:101660000E94F306809184068150809384068091C5
:101670008E06815080938E060F900FBE8F89988DB5
:101680000E94A808CE010E94A80880918E068111B0
:10169000DBCFD6CFFF920F931F93CF93DF93EC0155
:1016A000F62E00918206109183068091E4069091B7
:1016B000E50602960E94F306CF3F8FEFD80769F444
:1016C000FF2059F06091E4067091E5066E5F7F4F50
:1016D00085E896E00E94A1062FC0C00FD11FE091BF
:1016E000E406F091E506D383C283C017D10768F4FE
:1016F0006091E4067091E5068091A1069091A206A2
:101700006E5F7F4F0E94C20617C06091E406709121
:10171000E5068091A3069091A4066E5F7F4F0E941C
:10172000C20680917A0690917B06C817D90720F4EB
:10173000D0937B06C0937A06DF91CF911F910F91D2
:10174000FF9008954F925F926F927F928F929F9237
:10175000AF92BF92CF92DF92EF92FF920F931F93BF
:10176000CF93DF934C016B015A012901CA010E94FA
:1017700073083C01892B09F4E7C086E290E00E94DF
:101780007308EC01892B59F0788E6F8A81E0A81AD2
:10179000B108A60CB71CC114D10429F420C0C301A0
:1017A0000E94A808D1C0D6018C91898F8C91882382
:1017B000A1F0AE01465E5F4FF6013196B8E0CB0E68
:1017C000D11CCF012191DA012D93AD01DC018C9167
:1017D000882319F0CE16DF06A1F718A201C0198ED2
:1017E000053008F004E00E8B6E01B2E0CB0ED11C88
:1017F000C6010E949D06CE010C960E949D06D987C7
:10180000C88785E090E0801B91099D878C87DB8BE2
:10181000CA8B19A21AA21BA21CA21DA2A201B4016A
:10182000C5010E941A0799838883E114F10419F015
:10183000F701D183C0830FB6F8940F92809184068C
:101840008F5F809384068091E4069091E506892B52
:10185000D1F5D093E506C093E406809184068130EB
:1018600009F041C007EB16E00F2EF4EEEF2EF6E084
:10187000FF2EF02DC8010E948F06075F1F4F0E1527
:101880001F05C1F78EEA96E00E948F0685EA96E072
:101890000E948F0688E996E00E948F068FE896E006
:1018A0000E948F0685E896E00E948F068EEA96E0F9
:1018B0009093A4068093A30685EA96E09093A206EF
:1018C0008093A10610C08091800681110CC0E09128
:1018D000E406F091E50696898E89891720F0D09369
:1018E000E506C093E40680917C068F5F80937C06BA
:1018F0008E8990918106981710F48093810690E06C
:101900009C01220F331F220F331F220F331F820F20
:10191000931FB6018954994F0E94A1060F900FBEE4
:1019200080918006882361F0E091E406F091E5065D
:1019300096898E89981730F40E94BB0781E005C014
:1019400081E003C081E001C08FEFDF91CF911F9153
:101950000F91FF90EF90DF90CF90BF90AF909F904E
:101960008F907F906F905F904F9008950F931F938B
:10197000CF93DF932091E4063091E5068217930719
:1019800009F43EC0009709F43BC00FB6F8940F92DB
:10199000FC01228533852558364081F5FC012489D8
:1019A0003589F6E028393F0749F1232B39F5EC0159
:1019B0008C010E5F1F4FC8010E94F3068E89909123
:1019C0008106981710F48093810690E09C01220F05
:1019D000331F220F331F220F331F820F931FB801B3
:1019E0008954994F0E94A106E091E406F091E50622
:1019F0009E898689981710F00E94BB070F900FBE32
:101A0000DF91CF911F910F910895EF92FF920F9365
:101A10000F2EF8E7EF2EF6E0FF2EF02D00E020E08D
:101A200030E045E550E06CE770E08EE19BE00E941D
:101A3000A20B813081F4F8948FEF9FEF90937B0697
:101A400080937A0681E0809380061092830610923C
:101A500082060E9486070F91FF90EF900895809173
:101A600077068F5F8093770608950FB6F8940F92EC
:101A700080918206909183060F900FBE0895CF92B9
:101A8000DF92EF92FF920F931F93CF93DF9380919A
:101A90007706811199C0E0908206F09083068FEF5F
:101AA000E81AF80AF0928306E0928206E114F10443
:101AB000B9F48091A3069091A4062091A1063091DB
:101AC000A2063093A4062093A3069093A2068093C7
:101AD000A10680917D068F5F80937D060E94FF0A9C
:101AE00080917A0690917B06E816F90610F4D12CC5
:101AF00053C0D12CCC24C394E091A306F091A4064A
:101B00008081811107C08FEF9FEF90937B068093B8
:101B10007A0642C0E091A306F091A4060580F68102
:101B2000E02DC681D7818A819B81E816F90628F4C9
:101B300090937B0680937A062FC08E010E5F1F4F15
:101B4000C8010E94F3068C899D89892B21F0CE0162
:101B50000C960E94F3068E8990918106981710F4D6
:101B60008093810690E09C01220F331F220F331FC8
:101B7000220F331F820F931FB8018954994F0E947F
:101B8000A106E091E406F091E5069E898689981702
:101B900008F4B2CFDC2CB0CFE091E406F091E5067A
:101BA000868990E0FC01EE0FFF1FEE0FFF1FEE0F86
:101BB000FF1F8E0F9F1FFC01E954F94F8081823077
:101BC00048F0DD24D39406C080917F068F5F809318
:101BD0007F06D12C80917E06882311F0DD24D394DA
:101BE0008D2DDF91CF911F910F91FF90EF90DF909E
:101BF000CF900895DF92EF92FF920F931F93CF93B0
:101C0000DF930FB6F8940F928091770681508093FE
:101C100077068091770681115FC0809184068111DB
:101C200033C05DC0D7011596ED91FC911697C68122
:101C3000D781CE010C960E94F3068E010E5F1F4FD6
:101C4000C8010E94F3068E8990918106981710F4BE
:101C50008093810690E09C01220F331F220F331FD7
:101C6000220F331F820F931FB8018954994F0E948E
:101C7000A106E091E406F091E5069E898689981711
:101C800068F0D0927E060AC0C0E0D0E00F2EF8E9DE
:101C9000EF2EF6E0FF2EF02DDD24D394F7018081A6
:101CA0008111C0CFCD2B11F00E94FF0AC0917F0699
:101CB000CC2351F0D1E00E943F0D8111D0937E06DC
:101CC000C150C9F710927F0680917E06882331F0BB
:101CD0000E94BB0781E003C080E001C080E00F905C
:101CE0000FBEDF91CF911F910F91FF90EF90DF908A
:101CF00008950F931F93CF93DF938C01EB010E9404
:101D00002F0D4091820650918306F8012081318188
:101D1000C9018C0F9D1F4217530748F48217930780
:101D2000E8F4918380834817590768F407C0821745
:101D3000930780F04817590768F010C060E0841BD3
:101D4000950B0E944A0B0E94FA0D81110BC00E9454
:101D5000BB0708C0F80191838083F0CFF80191831D
:101D60008083F1CFDF91CF911F910F910895CF9391
:101D7000DF93EC01892B51F00E942F0D60E0CE0122
:101D80000E944A0B0E94FA0D811102C00E94BB07FB
:101D9000DF91CF91089580917706882321F081E02B
:101DA00080937E06089510927E0620918106822FF0
:101DB00090E0FC01EE0FFF1FEE0FFF1FEE0FFF1F65
:101DC000E80FF91FE954F94F3081311111C021504A
:101DD000822F90E0FC01EE0FFF1FEE0FFF1FEE0FB2
:101DE000FF1FE80FF91FE954F94F3081332379F3CE
:101DF000AC01440F551F440F551F440F551F480F8A
:101E0000591FDA01A954B94F1196ED91FC9112971F
:101E10000280F381E02D1296FC93EE9311974654C5
:101E2000594FE417F50729F442815381FD0152838C
:101E30004183FC01EE0FFF1FEE0FFF1FEE0FFF1F90
:101E40008E0F9F1FFC01E954F94F0180F281E02DB4
:101E5000868197819093E5068093E406209381061E
:101E600008950F931F93CF93DF93EC010FB6F8946F
:101E70000F92892B21F4C091E406D091E5068E01E2
:101E80000E5F1F4FC8010E94F3068C899D89892B24
:101E900021F0CE010C960E94F306B80185E896E089
:101EA0000E94A1068DA1813009F41DA20F900FBEE2
:101EB00080918006882339F00FB6F8940F920E9423
:101EC000FF0A0F900FBE8091E4069091E506C817B7
:101ED000D907A1F480918006882319F00E94BB07DE
:101EE0000DC09091850680918406981305C01092CC
:101EF000E5061092E40602C00E94CB0EDF91CF915E
:101F00001F910F910895CF93DF93EB016091E40649
:101F10007091E506645F7F4F0E94C20661E0CE01CA
:101F20000E944A0BDF91CF9108950F931F93CF9397
:101F3000DF93DC011596ED91FC911697C681D78150
:101F40008E01045F1F4FC8010E94F306809177063F
:101F500081111CC00A501109C8010E94F3068E8924
:101F600090918106981710F48093810690E09C016F
:101F7000220F331F220F331F220F331F820F931F95
:101F8000B8018954994F0E94A10605C0B80188E99B
:101F900096E00E94A106E091E406F091E5069E8994
:101FA0008689891720F481E080937E0601C080E055
:101FB000DF91CF911F910F91089520917D06FC0133
:101FC00020832091820630918306328321830895F5
:101FD000CF93DF930FB6F8940F9220918206309141
:101FE0008306DB014D915C914F3FBFEF5B07F1F042
:101FF000EC01E981FA81A0917D06B881BA1719F048
:102000002E173F07A8F42E1B3F0B2417350748F463
:10201000FB01421B530B518340830E94DD0F80E084
:1020200008C0FB011182108281E003C080E001C082
:1020300081E00F900FBEDF91CF91089581E08093F2
:102040007E0608950E9436100C9417110E941011FC
:1020500058F00E94091140F029F45F3F29F00C94D8
:10206000001151110C944B110C9406110E9428116F
:1020700068F39923B1F3552391F3951B550BBB27B7
:10208000AA2762177307840738F09F5F5F4F220FFC
:10209000331F441FAA1FA9F335D00E2E3AF0E0E8F3
:1020A00032D091505040E695001CCAF72BD0FE2F3D
:1020B00029D0660F771F881FBB1F261737074807D1
:1020C000AB07B0E809F0BB0B802DBF01FF27935889
:1020D0005F4F3AF09E3F510578F00C9400110C943C
:1020E0004B115F3FE4F3983ED4F38695779567955F
:1020F000B795F7959F5FC9F7880F911D96958795BE
:1021000097F90895E1E0660F771F881FBB1F6217DC
:1021100073078407BA0720F0621B730B840BBA0B9A
:10212000EE1F88F7E09508950E94301188F09F57C0
:1021300098F0B92F9927B751B0F0E1F0660F771FEB
:10214000881F991F1AF0BA95C9F714C0B13091F0E1
:102150000E944A11B1E008950C944A11672F782F1C
:102160008827B85F39F0B93FCCF3869577956795A6
:10217000B395D9F73EF490958095709561957F4F12
:102180008F4F9F4F0895E89409C097FB3EF49095B8
:102190008095709561957F4F8F4F9F4F9923A9F040
:1021A000F92F96E9BB279395F695879577956795CF
:1021B000B795F111F8CFFAF4BB0F11F460FF1BC013
:1021C0006F5F7F4F8F4F9F4F16C0882311F096E9A6
:1021D00011C0772321F09EE8872F762F05C0662354
:1021E00071F096E8862F70E060E02AF09A95660F0D
:1021F000771F881FDAF7880F9695879597F90895C6
:1022000097F99F6780E870E060E008959FEF80ECA9
:10221000089500240A94161617061806090608954C
:1022200000240A9412161306140605060895092EB2
:102230000394000C11F4882352F0BB0F40F4BF2B21
:1022400011F460FF04C06F5F7F4F8F4F9F4F089561
:1022500057FD9058440F551F59F05F3F71F0479557
:10226000880F97FB991F61F09F3F79F0879508953C
:10227000121613061406551FF2CF4695F1DF08C05B
:10228000161617061806991FF1CF86957105610578
:1022900008940895E894BB2766277727CB0197F920
:1022A0000895FB01DC0102C001900D9241505040A5
:1022B000D8F708954532510520F4423010F00C94BF
:1022C0006511FB011082CB010895BB274A3031F420
:1022D000992322F4BDE2909581959F4F0C94711142
:1022E000BB27FB015527AA27880F991FAA1FA417F0
:1022F00010F0A41B83955051B9F7A05DAA3308F0E4
:10230000A95DA193009779F7B111B1931192CB0117
:102310000C948A11DC01FC01672F71917723E1F79E
:10232000329704C07C916D9370836291AE17BF07A2
:08233000C8F30895F894FFCFF3
:102338000100540041011E0000400006001600E1A3
:1023480000210024000F0E330003080B49444C45BC
:02235800000083
:00000001FF
